:020000040800F2
:2000000008100020710200082D000008310000084FF000024FF6FF700146C0F2030100BF0E
:2000200002F101028A42FAD1704700BF704700BF704700BF704700BF70B405460C4611B9D0
:200040004FF0000019E04FF0000001464FF0080648F2084C6B5C80EA0300324603464FEAD9
:20006000500013F0010F18BF80EA0C0012F1FF32F4D101F101018C42ECD180B270BC704743
:2000800042F20403C4F2020340F22312C4F267521A6048F6AB12CCF6EF521A60704700BF2C
:2000A00042F20C010A46C4F20202136813F0010FFBD142F20C03C4F202034FF035021A60AD
:2000C000704700BF10B542F21004C4F20204236843F00203236042F21403C4F2020318601D
:2000E000236843F040032360FFF7DAFF236823F00203236010BD00BF2DE9F04744F2000474
:20010000C0F600044FF0000649F600431D46C0F600054AE01359B3F1FF3F03D02046FFF799
:20012000D1FF04E002F10402B2F5806FF2D104F58064AC4239D144F20006C0F6000642F2B8
:200140000803C4F20203994642F20403C4F20203984642F210031F46C4F2020749F6FC334D
:20016000C0F600039A4606F5B8431D684D4508BF4546FFF795FF3B6843F001033B6000BFC9
:20018000ABB2344624F8023BFFF78AFF4FEA15452580FFF785FF3B6823F001033B6033680E
:2001A000564504D006F10406DDE73246B2E7BDE8F08700BF10B549F60040C0F60000FFF72F
:2001C00081FF10BD10B54FF0FF3149F60442C0F6000249F684431846C0F6000052F8043CBD
:2001E00001EA030102F104028242F7D1B1F1FF3F08BF002010D049F60040C0F6000045F674
:20020000FE31FFF719FF4FF2FE73C0F600031B88984214BF0020012010BD00BF10B5FFF75E
:20022000D1FF28B1FFF72CFFFFF766FFFFF7C2FF42F21002C4F20202136843F0800313603E
:200240004EF60852CEF2000244F20003C0F600031360BFF36F8F44F20003C0F600031E68B1
:2002600086F308885E6830474FF0000010BD00BF10B540F20002C2F2000240F20403C2F2D1
:2002800000039A4213D24FF0000240F20001C2F2000140F2143EC0F6000E18465EF8023043
:2002A0008B5002F1040201EB02038342F6D340F20402C2F2000240F20403C2F200039A4231
:2002C0000AD213464FF0000140F20402C2F2000243F8041B9342FBD3FFF7A0FF10BD00BF9D
:2002E0002449643A2073746D3332626F6F742E6320323120323030392D31302D31342031F6
:18030000323A33383A31325A206D696E7578202400000000E002000898
:200400000000000000000000000000000000000000000000000000000000000000000000DC
:200420000000000000000000000000000000000000000000000000000000000000000000BC
:2004400000000000000000000000000000000000000000000000000000000000000000009C
:2004600000000000000000000000000000000000000000000000000000000000000000007C
:2040000008140020B14100081D7400082174000825740008297400082D7400080000000045
:20402000000000000000000000000000357400083174000800000000957000086571000837
:20404000397400083D7400084174000845740008497400084D740008517400085574000848
:20406000597400085D7400086174000865740008697400086D740008717400087574000828
:20408000797400087D740008817400088D7800088D78000885740008897400088D7400080C
:2040A0009174000895740008997400089D740008A1740008A5740008A9740008AD74000828
:2040C000B1740008B5740008B9740008BD740008C1740008B5630008C5740008C974000831
:2040E000CD740008D1740008D5740008FFFFFFFFFFFFFFFFFFFFFFFFFFFFFFFFFFFFFFFFED
:20410000000000000000000000000000000000004A2D4C696E6B2041524D2D4F4220535415
:204120004D333220636F6D70696C6564204A756E20333020323030392031313A31343A3119
:204140003500436F7079726967687420323030332D32303038205345474745523A20777770
:20416000772E7365676765722E636F6D0000000000000000000000000000000000000000B0
:2041800010B5094C02E004F0E3FE0C340748844208D26068A16822688142F4D1002104F027
:2041A000E3FEF2E710BD00BF7C910008A0910008024CA04730B1024CA04703E0DD720008E6
:2041C00081410008034C4FF00000A047024C034DAE462047CD8E0008298F00087D8F000870
:2041E00003480068000EFF2808BF0020704700004C000020674801684068400550EAD1209D
:2042000070470000634A64490148302302F00CB8EC9100082DE9F041124C5E4D0026884672
:20422000207003E03000761C642817D027492E232A00200001F0F8FF687847077F0F012FF7
:2042400008D1404618B1FFF7D5FFC8F800000020BDE8F081FFF7D6FF022FE3D05FF0FF3049
:20426000F6E700BF580000200100BD20D2E7000001009F20CEE7000010B500210400B7205D
:20428000FFF7C8FF10B92000FFF7EEFF10BD00000E4930B53F4D0400004807E0F491000840
:2042A0000A4930B53B4D0400074800BF2E232A0001F0BAFF687845076D0F012D02D1FFF768
:2042C00099FF2060280030BDFC9100080000002013B5304C3023BB2151EA4031009190EAD2
:2042E0001041C00C91EA112191EA111191EA91010A004908514001220A40274950EA4230D5
:20430000ADF804002200684601F08EFF60784007400F16BD1F4A02490248082301F084BF08
:20432000189300081A930008194A73B5194D105C002401228DF8020048018DF8030091EA9E
:20434000114090EA102090EA101090EA900090EA50000240500750EAD100019003E02000BC
:20436000641C642811D00C4930232A006846801C01F05AFF68784607760F012E04BF002026
:2043800076BDFFF73FFF022EE9D05FF0FF3076BD049200085000002008000020144915482C
:2043A00000B58BB05FF4847301AA01F03DFF6846FFF76EFF6846FFF773FF009810F0B20F6B
:2043C0000BD0FFF71FFF6846FFF76AFF009810F0A00F02D05FF0FF3007E007490120009161
:2043E000FFF7A2FF08B15FF0FF300BB000BD00BF309200080C9200080100005070B50400CE
:204400000D00FFF7FFFE00210220FFF78DFF0749060004202943FFF787FF050035432100D7
:204420000520FFF781FF284370BD00BF1000002310B50400FFF71CFF10B15FF0FF3010BD71
:204440002000FFF711FF002010BD000010B50C000221FFF7D3FF10B15FF0FF3010BD200061
:20446000FFF7E6FF08B15FF0FF3010BD10B50C000221FFF7C3FF10B15FF0FF3010BD210084
:204480000720FFF751FF10B17FF0010010BDFFF741FF002010BD000001000348E6E7000075
:2044A00001000148D2E70000F0ED00E0F1B504000D0000211600FFF7A1FF10B15FF0FF3079
:2044C000F2BD6846FFF7D4FE10B15FF0FF30F2BD022D12D36F1E6846FFF7CAFE10B15FF0AC
:2044E000FF30F2BD0098A107C90EC84000900098641C7F1E06F8010BEDD16846FFF7B4FE5C
:2045000010B15FF0FF30F2BD0098A107C90EC84030702800F2BD0000F1B504000D0001213E
:204520001700FFF76BFF10B15FF0FF30F2BD6846FFF79EFE10B15FF0FF30F2BD022D16D3D0
:204540006E1E6846FFF794FE10B15FF0FF30F2BD009802222240D100C84000900098A41CCC
:2045600038700098000A7870BF1C761EE9D16846FFF77AFE10B15FF0FF30F2BD009802211B
:204580002140C900C8400090009807F8010B0098000A38702800F2BDF1B50D0014000027A7
:2045A000A10708BF01270221FFF728FF10B15FF0FF30F2BD6846FFF75BFE10B15FF0FF30FA
:2045C000F2BD022D1ED36E1E4FB96846FFF750FE68B15FF0FF30F2BD241D761E12D0200069
:2045E000FFF746FE0028F7D05FF0FF30F2BD00982070010A6170010CA170000EE070241DA4
:20460000761EE2D16846FFF72FFE10B15FF0FF30F2BD0099200004F043FC2800F2BD0000D1
:204620002DE9F14B884699460400150000208346484641102000FFF7E1FE10B15FF0FF3066
:204640003CE04646A80709D14846042806D10120834601E0584608B1286816E028784946C1
:2046600002290CDB697850EA01204946032906DBE9780200A878090651EA004010430422CA
:204680004B46D21A2240D10088400090002707E00228D3D138007F1C6428CFD0FFF7B2FD93
:2046A0000098FFF715FE0128F2D119EB050519EB0404761ECED1FFF72DFE4046BDE8F28B57
:2046C0002DE9F043904604000D000026994606E0484617FA00F0241810EB0808ED1B3DB3F1
:2046E000E743FFF77DFD032802D13F053F0D01E0BF05BF0D4846C7407F1CBD4238BF2F4686
:2047000028B9424639002000FFF7D0FE0BE00128424604D139002000FFF7FEFE03E039003B
:204720002000FFF739FF002803D43618B842CFD03000BDE8F08300002DE9F04390460024BA
:2047400005000E00994606E0484617FA00F02D1810EB0808F61BDEB1EF43FFF741FD032871
:2047600002D13F053F0D01E0BF05BF0D4846C7407F1CBE4238BF3746012383404246390019
:204780002800FFF74DFF002803D42418B842DBD02000BDE8F08300002DE9F04188464446F8
:2047A000060017001D00C0070DD564B100232A0001213000FFF784FF00284AD4241A01283C
:2047C00045D16D1C761C780037D4B0070FD5022C0DD301232A0001213000FFF771FF00284E
:2047E00037D4B4EB4004012831D1AD1CB61C380011D4042C0FD3A70802232A00390030006F
:20480000FFF75EFF002824D4B4EB8004B8421ED1B8002D183618022C0FD3670801232A0001
:2048200039003000FFF74CFF002812D4B4EB4004B8420CD178002D18361844B100232A00B9
:2048400021003000FFF73CFF002802D4241AB8EB0400BDE8F08100002DE9F041884644463E
:20486000060017001D00C0070DD564B100232A0001213000FFF760FF00284AD4241A01289F
:2048800045D16D1C761C780037D4B0070FD5022C0DD301232A0001213000FFF74DFF0028B1
:2048A00037D4B4EB4004012831D1AD1CB61C380011D4042C0FD3A70802232A0039003000AE
:2048C000FFF73AFF002824D4B4EB8004B8421ED1B8002D183618022C0FD3670801232A0065
:2048E00039003000FFF728FF002812D4B4EB4004B8420CD178002D18361844B100232A001D
:2049000021003000FFF718FF002802D4241AB8EB0400BDE8F0810000F0B5050022480E001E
:2049200017000221FFF76AFD040010210220FFF7FBFC204315F8011B04000520FFF7F4FC01
:20494000010021430C003000FFF796FC2043361D7F1EEFD1F0BD0000F0B5040012480D005E
:2049600016000221FFF74AFD070010210220FFF7DBFC010039430F0055F8041B0620FFF786
:20498000D3FC010014F8010B39430F0050F480310520FFF7C9FC38430700761EECD1FFF706
:2049A000B9FC3800F0BD0000F0ED00E001B56846FFF776FD70B90098000305D5A148FFF756
:2049C0006BFD6846FFF76CFD0098800344BF012002BD002002BD00009A4800B5FFF75CFD9F
:2049E00008B9FFF7E3FF00BD00B520B10648FFF753FD064803E09348FFF74EFD0448FFF7B8
:204A00004BFD002000BD00BF0B005FA009005FA001005FA00B4810B5FFF73EFD10B15FF047
:204A2000FF3010BD0848FFF737FD10B15FF0FF3010BDFFF7BBFF04008248FFF72DFD200036
:204A400010BD00BF0F005FA00D005FA071B57C4C4F4D01212000FFF709FDFFF7C1FB03280B
:204A600001D14C4900E04C492800FFF7FFFC734D2E68C8366846FFF713FD0098800102D549
:204A80002E68C83608E02868301AF3D55FF0FF3072BD2868301AF9D46846FFF701FD00986A
:204AA0008001F6D400212000FFF7E0FC6548FFF7F3FCFFF77BFF72BD2DE9F14360485F4EC8
:204AC0000025002480465F48814602E0FFF766FC01254846FFF7E0FC01214046FFF7C6FC39
:204AE000FFF790FB2A48290001D02A4900E02A49FFF7BCFC6846FFF7D3FC244A00990A4091
:204B000001D1002804D5002DE0D05FF0FF303BE03768C83705E03068381AF6D46846FFF771
:204B2000BFFC00988001F6D53768C8373068381AEBD46846FFF7B4FC00988001F6D44846CA
:204B4000FFF7AAFC3CB140480221FFF78FFC3F48B121FFF78BFC00214046FFF787FC74B97D
:204B6000052002F05FF96846FFF79AFC0098000301D50124ADE7FFF719FF0028F9D04846D5
:204B8000FFF78AFCFFF712FFBDE8F2830000F0FC0CED00E00100FA050400FA052DE9F14F5A
:204BA000264D804626480024894682462548834600E001245846FFF76FFC01215046FFF7AB
:204BC00055FCFFF71FFB012002F02CF900F06EFF404602F027F900F06BFF484600B9642022
:204BE00002F020F9286800F2E836FFF7DFFE0700012F02D02868301AF7D55846FFF74CFCAC
:204C00003CB111480221FFF731FC1048B121FFF72DFC00215046FFF729FC64B9052002F0B9
:204C200001F96846FFF73CFC00980003C1D4FFF7BDFE0028BDD03800BDE8F28F9C010020ED
:204C4000FCED00E003005FA00000044004000440FCE6000030B504000D00FFF79FFF290068
:204C60002000BDE83040F1E630B504000D00FFF723FF01281EBF29462046FFF7EBFF30BD72
:204C80002DE9F041904604000D00012603E000F00DFFFFF783FB4046022804D1290020009E
:204CA000FFF7D8FF0AE0012804D129002000FFF7CFFF03E029002000FFF7D6FF0700012F04
:204CC00001D0761EE3D500F0F3FE3800BDE8F0812DE9F343042101A801F0B8FC04216846F6
:204CE00001F0B4FC00985FF0FF3780460002000A0090044601F0BAFB05000098A84238BF26
:204D00000546280001F0C0FB060018D0ACB1AC422CBFA946A1460198330042464946FFF7A1
:204D20003BFD07000CD40198E41B3900C0190190300001F047FC4F45E8D00098071B14B1EA
:204D4000200001F04DFC16B1300001F0BFFB3800BDE8F6832DE9F0478846040091460025E6
:204D60009A46504601F08AFC002601F08BFCB8EB00018F1B18B1402FF7D3032087435DB955
:204D8000504683194A4639002000FFF765FD0500BD4208BF0025E419F6194645E5D115B19D
:204DA0005FF0FF3000E04046BDE8F0872DE9F3475FF0FF308046042101A8474601F046FCD1
:204DC0000421684601F042FC009881460002000A0090044601F04AFB05000098A84238BFD8
:204DE0000546280001F050FB06000DD114B1200001F034FC16B1300001F068FB3800BDE8F2
:204E0000F6870198C01901908CB1AC422CBFAA46A2460198B4EB0A0433004A465146FFF78E
:204E200099FF0700E2D45745EBD04746DEE7009FE1E7000030B5A9B0002404E09DF8001022
:204E400021A80155641C0121684601F0FFFB9DF80000FF28F2D1220001A921A8FFF75CFD95
:204E60000500A10001A801F0ADFB280029B030BD10B5AAB000240CE0042101A801F0E6FB8D
:204E80009DF8001022A80155019902A840F82410641C0121684601F0D9FB9DF80000FF28CC
:204EA000EAD1220002A922A8FFF756FD2AB010BD01B50121684601F0C9FB9DF80000FFF7EA
:204EC00093FD02BDA6E5000086E500006EE500000FB50020019014210291039004E09DF8F1
:204EE000001001A801F0B2FB0121684601F0AEFB9DF8000030B9019A03990298FFF7C0FEEE
:204F000004B000BD012100A8401C01F09FFB9DF801000128E3D0022802D0032804D007E01B
:204F20009DF8001002A8DDE79DF8001003A8D9E79DF8000001F092FBD6E7000030B591B058
:204F400002210500684601F081FBBDF8001001A801F07CFBBDF80000042803D301A803F0E5
:204F6000A9FF00E01A481B49642D086010D0652D11D06E2D12D06F2D13D0792D14D07A2D6A
:204F800015D07B2D16D07C2D17D0822D18D01AE0FFF79EFE16E0FFF709FF13E0FFF74AFFC5
:204FA00010E0FFF765FF0DE0FFF782FF0AE0FFF789FF07E0FFF788FF04E0FFF787FF01E036
:204FC000FFF786FF0400200001F030FB11B030BDFF0000034C00002011B5684600F056FE42
:204FE0000400009880B201F01BFB0099200001F0E9FA11BD704700002DE9F34F019180461A
:20500000022168460026002501F020FBBDF80000C01DC0108146032009FB00F001F034FA09
:20502000040019EB040A19EB0A0B44B94846400001F014FB484601F0D3FA062545E049464B
:20504000504601F003FB4946200001F017FB01F019FBB9EB00018F1B18B1FF2FF7DD3F209B
:205060008743FB00494506D1BDF80000C01D4007400FC01F1B18EDB2002D15D11F4800783B
:2050800040B95846821950468119A01900F0B4FF050010E001280ED15846821950468119EC
:2050A000A01901F0C1F8F3E7DB1DDA1000215846801903F059FF019820B93900584680194C
:2050C00001F0A6FAF6194E45C1D10B48017801B90570019850B94046CF2804D0D52802D04E
:2050E00001F0B0FA02E0E8B201F096FA200001F0EDF9BDE8F38F00BF1C1000202A10002095
:205100002DE9F047BDF82070BDF82C5014008046BDF8240089469A46261802F00CF800F046
:20512000C3FC00F0C5FC3800471E00040FD05046C30022004946404600F05EFF7178307811
:2051400050EA0120BDF828100140A942EBD101F06FFCBDE8F087000070B585B0022168467C
:2051600001F074FA022101A801F070FA022102A801F06CFA022103A801F068FA022104A895
:2051800001F064FABDF8000003214843093001F07BF90400BDF8000025182E18014620001B
:2051A00001F054FABDF80010280001F04FFA049B039A0299019892B289B280B29BB20FB458
:2051C000BDF81030280032002100FFF799FFBDF810106BE02DE9F047144EBDF820701400A9
:2051E0008046BDF8240089469A462518012001F019FE00F059FC00F05BFC3068C719504661
:20520000C30022004946404600F0F6FE6978287850EA0120BDF828100140BDF82C00814202
:2052200002D03068381AEAD5BDE8F0879C01002070B585B00221684601F008FA022101A830
:2052400001F004FA022102A801F000FA022103A801F0FCF9022104A801F0F8F9BDF800008D
:2052600003214843093001F00FF90400BDF8000025182E180146200001F0E8F9BDF8001013
:20528000280001F0E3F9049B039A0299019892B289B280B29BB20FB4BDF810302800320099
:2052A0002100FFF797FFBDF8101000BF300001F089F9200001F00AF909B070BD03B500F068
:2052C000B7FDADF8000000F0BFFD8DF8020000F0C1FD8DF8030000F0C1FD8DF8040000F0E5
:2052E000ABFD8DF8050000F0BFFD8DF8060000F0C3FD08218DF8070064E0000000B50420C3
:2053000001F08EF9044801F08BF95FF400605DF804EB01F085B900BFE32E000017485FF4AC
:20532000807101F04FB9000010B50B7804781C409C421CBF002010BD491C401C521EF4D1C7
:20534000012010BD10B50D4CC0B05FF48071684601F07CF9E20C69462000FFF7E5FF20B111
:20536000E20C6946200000F09FFC0020FFF742FE002001F051F940B010BD000000FC000873
:205380000148042101F01EB95492000800B588B020220021684603F0E7FD0649684603F024
:2053A0007FFD00208DF804002021684601F00AF908B000BD3358EA8803B5684600F03AFEE5
:2053C000062100BF684601F0FDF803BD00B500F0D9FC5DF804EB01F029B9000030B5A1B0CC
:2053E0000421684601F032F9002500240CE0C00706D5280000F028FE01A941F82400641C22
:2054000000986D1C4008009000980028EFD11DE030B5A1B0002400250421684601F016F9C4
:2054200001A90FE0C00709D55FF0FF30022D3CBF094850F8250041F82400641C00986D1CCA
:205440004008009000980028ECD100BFA10001A801F0B8F821B030BD6000002003B5042132
:20546000684601F0F3F8042101A801F0EFF801990098A8E700B500F0F9FF5DF804EB01F069
:20548000D5B800000A485FF4807101F09BB8000000B5C0B05FF48071684601F0D7F8044882
:2054A0005FF48072694600F0FFFB40B000BD000000F8000803B5012101A801F0C7F800909E
:2054C00088B99DF80400FE2803D0FF2804D1032004E00548007801E000F0D0FA00900421E1
:2054E000684601F06FF803BD2A10002001B50221684601F0ABF80849BDF80000884204BFDE
:205500000020ADF80000BDF800005FF47A71484300F0F8FC01BD00BFFFFF000000F0C6BA79
:2055200000F0C6BA11B501216846012401F08EF8214600A8401C01F089F8022001F08EF853
:2055400090B99DF800009DF8011051EA00201F49884205D01E49884202D01E49884200D160
:20556000024C200001F062F811BD00BFFF03000001B5012100A8801C01F068F8012100A8AC
:20558000C01C01F063F80121684601F05FF8012100A8401C01F05AF89DF800009DF8011027
:2055A00051EA00200949884205D00949884202D00849884209D19DF801309DF800209DF8AC
:2055C00003109DF80200FFF7B9FC01BD0101000001030000010600000100002000E0401C4E
:2055E000042806D2704A12EB001252898A42F6D170475FF0FF307047F0B59DF814500400E2
:20560000002000E0401C04280ED2674E16EB00167789002FF6D131606249726033727572C6
:2056200074810968F160F0BD5FF0FF30F0BD000000B5FFF7D1FF002805D45A4A5A4912689E
:2056400011EB0011CA6000BD00B5FFF7C5FF002804D45549002211EB00114A8100BD000092
:2056600030B5A5B0012100A8801C00F0EFFF042103A800F0EBFF042104A800F0E7FF012139
:2056800000A8C01C00F0E2FF012102A800F0DEFF0221684600F0DAFF9DF80200642802D08D
:2056A000652822D025E0BDF8000058B930480188491C0180ADF80010BDF80000FFF78CFFCE
:2056C0000028F3D5BDF80000FFF7B2FF002810D59DF8080001B49DF80730059A0499BDF862
:2056E0000400FFF789FF01B003E0BDF80000FFF7ABFF05A80190BDF8001001A8002403F07C
:20570000BBFB042101A803F0B7FB102101A803F0B3FB042101A803F0AFFB1BE0224810EB1A
:205720000415296801A8641C03F0AEFB696801A803F0AAFB297A01A803F098FB697A01A88A
:2057400003F094FB698901A803F096FBE96801A803F09AFB042CE1D300F06AFB010001A843
:2057600003F092FB4C2105A800F02CFF25B030BD141000200B4830B5002504680DE00A4866
:2057800010EB0510418939B1C168054A611A9142A4BF4089FFF758FF6D1C042DEFD330BD9D
:2057A000881300009C0100206800002000B500F049FC5DF804EBDDE71D4900B50A6810007A
:2057C000012814DB7FF00042904208BF0120401C08601849884213DB642103F0DBFB18B152
:2057E000002000F005FE0BE000F00AFE08E0002806D51148521E0A60824208BF00F070FCAE
:2058000000F016FB0F490D4A9042086809D30C4A90420ADA10B94868401C486008680A3087
:2058200004E010B14868401C48600020086000BD7C060020B3020000F0D8FFFFD6060000D1
:20584000005C2605600000200A4810B50168491C01600A290CD100240460FFF7ADFF064873
:205860000168491C01600A2904BF0460FFF79EFF10BD00BFA8000020AC00002000B501F046
:205880005AFC002000F0C4FDF9E7000010B50400C22C02D1FFF7BCFD10BDEB2C02D101F020
:2058A00067FF10BDCE2C01D0CF2C07D1012000F0D5FE0028F5D10021E0B24FE0012800F04A
:2058C000A380022800F09280032800F08780042800F0A08005284AD0062800F0988007286F
:2058E00054D0092800F0A8800B28DAD0C0286BD0C12800F09880C72800F09B80C82866D02A
:20590000C92849D0CA284AD0CB284BD0CC284CD0CD2822D0D0284ED0D1284FD0D42850D022
:20592000DC2827D0DD2828D0DE2841D0DF2862D0E62828D0E7282CD0E8286ED0E92810D0CF
:20594000EA2811D0ED286BD0F02819D0F22855D0F32856D0FE2869D071E00021FFF74CFB75
:2059600010BDFFF7DFFD10BDFFF702FE10BDFFF7BDFD10BDFFF7D2FD10BDFFF7D1FD10BD58
:20598000FFF724FD10BDFFF7C9FC10BDFFF796FC10BDFFF7D7FC10BD00F08AFA10BD00F07F
:2059A00089FA10BD00F08CFA10BD00F091FA10BD00F078F810BDFFF7CFFB10BDFFF738FC28
:2059C00010BDFFF757FD10BDFFF7F6FC10BD00F093FA00F03FFA00F01FFE10BD00F066F860
:2059E000022001F01FFA00F063F810BD00F05AF8022001F017FA00F057F810BDFFF742FDBC
:205A000010BDFFF745FD10BDFFF7E6FA10BD00F0CFF810BDFFF772FC10BDFFF7B1FC10BDEC
:205A2000FFF7B4FC10BDFFF7D9FC10BDFFF716FD10BDFFF73FFD10BDFFF712FE10BDFFF7BD
:205A40001DFF10BD30B50400100071B1020014F8010B504008224508C00752BF284628466D
:205A60005840521EF7D1491EF0D130BD024B00B5FFF7E8FF80B200BD0884000070B5084D6D
:205A8000040028780600012803D1012C18BF01F08BFE200000F0E2FB2C70300070BD00BF3C
:205AA0002A10002000F0F0B900F0F0B900F0F0B900F0F0B930B5064D040000222900FFF7AB
:205AC000D5FF615B884204BF002030BD012030BDFE5B000001000A780020202A06D1491C0C
:205AE00004E00A2300FB0320303880B211F8012B302A01D33A2AF4D370470000214A2DE917
:205B0000F04389B069462424241F13590B51FBD100F22D184046001DFFF7DCFF8146404653
:205B2000C01DFFF7D7FF040040460C30FFF7D2FF050040460F30FFF7CDFF0600002704E092
:205B400000201BE07F1C0C2FFAD003206B4607FB00300322414603F0E9F90028F2D10A48C6
:205B60000C21BFB2201800FB01701F2100FB0190182100FB01503C2100FB016009B0BDE87B
:205B8000F08300BF5892000830F8FFFF10B5FFF7B5FF04003C48FFF7B1FF04B108B9012087
:205BA00010BDA0423CBF012010BD002010BD0000E0B5ADF2044D00205FF4806500F02CFD6A
:205BC0002E480221ADF80000684600F03FFD5FF4806101A800F03AFDBDF800005FF4B841A8
:205BE00088422DD101A8FFF7D1FF48B3254E2A4601A9300000F076F8370017F58067710CB1
:205C000001A800F023FD720C01A9380000F06AF815F58065ADB25FF4B8418D42EDD33000C0
:205C2000FFF748FF05001CBF304600F069F8280000F0F2FC642001F0F5F800F051FA19E0E4
:205C400001A800F210111748802203F081F907E05FF4806101A800F0F9FC15F58065ADB223
:205C6000BDF800108D42F3D3054801F0DBF8002000F0D2FC0DF2044DE0BD00BF55AA000030
:205C8000DC050000009C000800400008054A01000348137803B1100009B170220A607047E0
:205CA00010410008FC050020F0B504000D00160009E0002000F09CFB7F1CB7EB460FF8DBA9
:205CC000002000F09DFB32002900200000F01CF832002900200003F029F900B9F0BD002780
:205CE000EBE7000070B504000D001600310000F00FF8320029002000BDE87040D4E70000D3
:205D00005FF4806100F004B8004B1847F1100020004B1847951000203A480B493B4A41606D
:205D200039490A60094A4A603A4A2021127812B1012A04D07047064A026001617047054A98
:205D400002604161704700BF34C84C444444454333443438344434382A485FF044310160CF
:205D60000349416028482949016002494160704734C44C4444444544424800680106490F66
:205D80005EE000002248006870470000184810B5434C01687FF0E0620A4052F080610160A0
:205DA000144800F0AFF81648134A016851F00C01016014485FF0443101604160C26012487F
:205DC000124A026041602021C16011480B4901603448012101700F4800210170FFF7CCFF3B
:205DE000207010B1FFF798FF10BDFFF7B5FF10BD04000140204E0000E30400007011010065
:205E00001810024000080140000C014044448444C80000201F10002010B92C48810C0160D0
:205E20007047000010B92D48810C01607047000000487047E40C00000E4800680106090FFC
:205E400001200840704700000A4800680106C90EF6E700000B480168F2E700000548006863
:205E60000106890FECE70000024800680106890EE6E7000008080140024800680106490E32
:205E8000DEE70000080C01400EE0000019480CE0144801E0174800BF022101607047000017
:205EA000201000201E1000200E480121016070470C4801E00F4800BF8021016070470000B0
:205EC00002485FF48041016070470000140C014002485FF48041016070470000100C014018
:205EE000004803E014080140024800BF20210160704700001008014000B5FFF7F1FF5DF86F
:205F000004EBF1E711490860C0B10D4A01460020914208D20B4A8A18B2FBF1F2D21E012A7A
:205F200002DA012200E00022B54B1A60064AB2FBF1F1244A0A39116048BF1060704700BFF8
:205F4000C05C15007F8D5B00808D5B00B00000202DE9F04705001B480E00904699464C4667
:205F600000278246F00702D5FFF7B2FF01E0FFF7A7FFE80702D5FFF79DFF01E0FFF798FF7A
:205F8000FFF7AEFFDAF800006D0876087F0808B100F01EFAFFF762FF08B157F08007FFF77D
:205FA000A3FFDAF8000008B100F012FA641ED9D108204946401AC74088F80070FFF778FF17
:205FC000BDE8F087B4000020F0B504000D0016001F0014F8011B15F8010B08233200FFF752
:205FE000B7FF761C7F1EF4D1F0BD000000B5FFF7EBFF002000BD00002DE9F04380468946FA
:2060000016001F00FC0805D02300FFF7EFFF05000CD100E000257F077F0F07D04046015DB5
:206020004846005D3B003219FFF792FF2800BDE8F08300000249016004218180704700BFE0
:20604000006CDC0270470000154970B101280FD0022810D0032812D0042814D00A2816D079
:206060000B2816D00C2816D017E00E48007870470D48006870470D48B0F9000070470C48F4
:20608000B0F9000070470B48B0F9000070470888704748887047888870475FF0FF30704723
:2060A000BC0000201D100020C400002016100020181000201A10002030B56F4C2578FFF7C8
:2060C0005BFE40B16E48007810B10DB9FFF724FE0120207030BD15B12070FFF73DFE30BD97
:2060E00000B501F028F80348034A016889B20A430260FEE70CED00E00700FA057047000074
:20610000704700002DE9F14F374F009204003C4898460D000026C1468246202083467FF07A
:206120007040E107396803D5084050F0405002E0084050F0004038608020E90754BF786178
:206140003861C7F810B0DAF8000064086D0800F03FF9C7F814B0DAF80000F605360E00F0C8
:2061600037F9B868C00648BF56F080064846401E8146D4D1009808214246891ACE4006706E
:206180000020BDE8F28F00002DE9F0439046002220249946144D7FF07046C7072F6803D592
:2061A0003E4056F0405602E03E4056F000462E608026CF0754BF6E612E612C612C616C6137
:2061C000AD6840084908D205120EED0648BF52F080025B1EDED108204946401AC24088F8A1
:2061E00000200020BDE8F0830008014010B5044C246814B1BDE8104084E7BDE81040C3E799
:20620000B8000020F0B504000D0016001F0014F8011B15F8010B08233200FFF7E7FF761CAF
:206220007F1EF4D1F0BD00002DE9F04180460C0015001E00F70804D03B00FFF7E3FF58B90C
:2062400000E00020710707D04046C15DE05D73075B0FEA19FFF7CAFFBDE8F081064A0749B2
:2062600012783AB1064A127822B10A78824201D0087051E508707047201000201F10002069
:206280001E1000201E481A4A424B00B501680A43026018487FF4706201680A4052F400618D
:2062A000154A01601548410D8160242141600021C1601B681B01B2FBF3F2374B521C5208EF
:2062C000120102602D4A1B681360344B2A4A1B6813602B4A1160416851F4005141601021FC
:2062E000352000F0CBFF352000F092FF00BD00BF044000000408014000449508083801404A
:20630000181002400248042201689143016070470C38014072B6194A12680260164800689C
:20632000086062B67047000072B614490968421A012A08DA184A1368184AC01A12689A1882
:20634000521A0F4908600C48026062B67047000009490A4B10B50A681C6852B1521E04F8BB
:20636000010B05D106480024026804600A4804680A601C6010BD0000DC000020D800002096
:20638000E000002003480160034802600348036078E70000CC000020D0000020D4000020C7
:2063A000B0E70000B6E70000BEE70000004870477C92000801480068C0B2C9E7043801409F
:2063C000704700007047000000487047FF4F0020401EFDD170470000124A0A214143515C47
:2063E00009B1FFF719BDFFF71DBD0000704700000C4A0A21012341435354FFF70DBD000000
:20640000084A0A21002341435354FFF70BBD0000044A0A2100FB01210A7892F001020A70DC
:20642000DAE70000E40000202748006808B97047080041680029FAD0026883188B42F7D10A
:206440004B684360096851180160F2E70022426001601D490A6812B908607047111D0A684B
:206460000AB19042FAD242600860DDE716490020096804E00A68904238BF104649680029B6
:20648000F8D100B10838704710B501000020C91D072291430C4A083100E01A1D136893B15D
:2064A0001C68A14208D218005B1813600268521A1A6042685A6003E0EFD118005B681360F8
:2064C00008B140F8081B10BDF000002000B518B150F8081DFFF7BAFF00BD00000722914377
:2064E000B4E7000011B5204CFFF76EFF011B491C20001E4CFFF7F2FFFFF748FC1C48FFF7E6
:2065000001FD0120FEF776FDFFF792FCFFF76EFF0020FFF76DFF00F0BDF81BE0FFF768FF8E
:2065200001202060FFF7EAFD684600F0D3F858B9FFF7E6FD5FF0FF3020600020FFF760FF17
:206540009DF80000FFF7A2F900F036F80028E5D000F0B2F800F0BCF80028F5D1FFF758FFA1
:20656000322000F05FFCF5E7081400207C060020204E000011B54F4C00F02EFA20B90221E1
:20658000200000F037FD11BD0021684600F014FA200000F019FD11BD00B500F01DFA40B17B
:2065A00000F018FA012804DB48483F490160012000BD002000BD000044480068806800477A
:2065C00000F028B900B50A00024303D03F4A12689269904700BD00003C4A1268126A1047AE
:2065E00030B588B00400684600212022121F8150FCD1212C34BF25462025344A2900684655
:20660000126892699047641BF3D108B030BD00002E4A1268D269104701B5012102E0000008
:2066200001B502216846FFF7CDFF01BD01B50421F8E700006846FFF7CFFF01BD01B504218E
:20664000F8E7000021480068406A004709B9002070471E4A1268D2681047000030B588B070
:206660000400212C34BF2546202529006846FFF7EDFF08B9641BF4D108B030BD134A1268EC
:206680001269104711480068006800470F48006840680047074800B500F044FC00F09CF852
:2066A0000A480149016000BDA0920008014800F069BC0000F800002000B5FFF781FF0348FA
:2066C000006840695DF804EB00470000F400002000F082B910B50400FFF76EFF08B1FFF704
:2066E000EBFF00F085F9FFF745FFFFF755FF0028F9D001212000FFF7A9FF040000F080F980
:20670000200010BD01B50023002001B440220221012001F011FC084B8DF80400402001B449
:2067200002460221002001F007FC8DF8090002A801F078F807BD00BF1401002010B50200C2
:20674000244C0A2310000A2102F01EFC3030E0540A20B2FBF0F25B1EF4D110BD0A48007833
:20676000012802D0022802D004E0084800E008480068E3E70748007804283EBFA64900F2BB
:2067800001100880704700BF01F8000800FC000808F8000800F80008FFF788BF00B501F0FA
:2067A0006BFE8007800F022818BFFFF77FFF00BD98480088704700009748008870470000EB
:2067C00096480068704700009548006870470000004870471400002000B5FFF7BFFF01F033
:2067E0002DFCFFF78FFF01F047FC054801F03AF804490548002300225DF804EB01F006BE70
:20680000996700089D670008040100206E480078704700006C4800210170704700B5FFF7B2
:20682000D1FD0A2000F0FEFA5DF804EBFFF7C8BD2DE9F04F8B466449884698F8001000294F
:2068400048D14D4D040034482F685E46814607B34020C01B86422CBF8246B24652462100E2
:206860004846C01902F074FB1AEB07071AEB0404B6EB0A06402F0CD1654800224021036898
:20688000484600F0BBFF40281CBF012088F800000027B009800182460FD05D480022514676
:2068A0000368200000F0AAFF50451CBF012088F800001AEB0404B6EB0A062EB132002100B3
:2068C000484602F045FB37002C482F605A46016889180160BDE8F08FF0B5284C2068D0B16D
:2068E000394D2978B9B9244E0027316861B1484801220368084800F081FF316888421CBF9F
:2069000001202870376005E0810603D1400518BF00F06CFF2760F0BD5401002070B52A4E2A
:2069200004000D00307860B9FFF7D6FF3848012229000368200000F061FFA8421CBF01202D
:20694000307070BD30B505001F480C00007888B90948006808B1FFF7BFFF2100280000F0F5
:2069600033FF0648A1061EBF0021016030BD01680919016030BD000094010020980100205D
:2069800070B5114E04000D00307810B15FF0FF3070BD1F480268200000F03CFFA84209D06F
:2069A0002A000021200002F0DFFA012030705FF0FF3070BD002070BD034A127812B15FF0FF
:2069C000FF30704700F0FABE2110002000F00ABF00F006BF00F000BF00B501F04DFD800744
:2069E000800F022804BF012000BD002000BD00000748064902680A600021016070470000B5
:206A00000249034809680160704700000001002010000020480000204A00002020000020F4
:206A200024000020004870470812002068467047034800B5007808B900F077FB00BD00001C
:206A4000A101002010B52A4C2078401E207000060ED100F070FB7C48007828B101202070AD
:206A600000F052FB00202070607808B900F05DFB10BD00002DE9B04181680022904631B1B1
:206A80000A68496802B151600A60C0F80880417C174C8907890F417411D16C490A68A2B964
:206AA0000860207830B90120207000F02DFB0020207004E06448017851F0020101706078DE
:206AC00008B900F032FBBDE8B081037C157C9D42E6D38242E5D0AB42F1D105002D68002D6B
:206AE000EDD02F7CBB42EAD19542F7D1D8E70000A00100203A4930B50400207C00E011005E
:206B00000A6812B1157CA842F9D3226061610C6042B15461127C21002431824214BF0020E6
:206B200048780870607C20B900F005FB2000FFF7A1FF30BDF0B5994C974D274E274F00F08C
:206B4000FAFA4148017811F0FE010170286810F57A6020600DE038600168316000210174CA
:206B60003868816000F0E1FA38684068804700F0E2FA306830B181682A68891A0129EADB68
:206B80008068206000F0D1FA1548066807E0F0682168411A48BF206000F0C7FA3668CEB18F
:206BA00000F0C9FA2948016821B1317C0068007C81420FD3707C4007EED5F0682968401A07
:206BC0000128E4DA3000FFF755FF00F0B4FA707C0028DCD1F0BD00BFB0010020B4010020E3
:206BE000A401002030B500F0A6FA914804681648017811F0FB01017000F097FA0CB3256804
:206C0000FDB1207C297C81421BD100E00D00296811B10A7C8242F9D000F08DFA0B48016850
:206C2000A14204BF21680160606921680160486165612868206000B1446145F8244B6878B0
:206C4000287000F072FA30BD22100020AC0100202DE9F04F0020002180464D48017070481A
:206C60000121017072488146D9F8000030B1816A21B109680A001CBF40688847424D5B4892
:206C8000424C8246287850B1D9F80000217800F8241F9AF80000400748BFFFF7A3FF3D485B
:206CA0008346DBF8000050B304E03068CBF8000000F03BFA00F03FFADBF80060FEB1777CD3
:206CC00038001CD0780710D53349F0680968411A012905DA3000FFF7CDFE707C28B90EE0D7
:206CE0002E490A68821A48BF086017F0FB001028DBD1B06880684068407C0028D5D100F098
:206D00001AFA9AF80000C00712D49AF8000010F0FD008AF80000DBF8000048B3DBF800006E
:206D2000407C50B1DBF8000080688068406806E000F0FBF9FFF7FEFEE1E7DBF80000C9F833
:206D40000000006A0078CD281CBF782000F07AF9D9F80000816A21B149680A001CBF4068BA
:206D60008847D9F80000243000782070287008E0287020702A48C9F800800021017000F03A
:206D8000D4F9BDE8F08F00BF2510002024100020A1010020AC0100209C0100202800002006
:206DA00030B51F4C2578681C207000F0ADF96078257008B900F0B9F930BD000010B500F0CA
:206DC000AFF9174801210170407808B900F0ADF9FFF728FE0400FFF729FE021B203A012A2B
:206DE000A2BFCD21204602F0BFF810BD2210002010B504000A48007830B100F096F90B48D0
:206E00000068001B0AD5FAE700F095F908480168CC60006804214174FFF7C2FF10BD000006
:206E2000A0010020014909684018E1E79C010020A80100202DE9F047089E099F04008846C3
:206E400091469A462C22002102F08EF8251D85F80C900A9884F82500404608B1C5F8148066
:206E6000EE61AF613A00CD21300002F07DF8F019483807218843002101605FF08071016451
:206E80000749C163C0F844A0286006480178491C01702000FFF72EFEFFF7D4FDBDE8F08798
:206EA000F5700008A00100207FB50C4E0400029430680D000194039000F03DF92068009071
:206EC00068462060009808B16946416030686946816030684574FFF763FF7FBDA80100200D
:206EE000FFB50F4F0400029438680D0016000194039000F020F92068009068462060009814
:206F000008B16946416038686946C66038688160386855F004014174FFF742FFFFBD00BF21
:206F2000A80100200822002102F01EB830B50D4C05002078401C207000F0FDF86078401C95
:206F40006070280000F01EF8280000F00DF86078401E6070000608BF00F0E7F8BDE830405F
:206F6000FFF770BDA001002010B5040000F0E3F8002020710248007808B900F0D6F810BDDA
:206F8000A101002030B50F4C050000F0D4F86078401C6070286850B12078401C20700020F5
:206FA0002871280000F062F8FFF74CFD01E0012028716078401E6070000608BF00F0B5F87C
:206FC00030BD00BFA001002010B5040000F0B3F8207928B948212000BDE81040FFF764BFCF
:206FE000002020710248007808B900F09EF810BDA1010020F0B5114D114F04000E0000F0E3
:207000009AF828688619207980B9320048212000FFF766FF00F08FF82868301A012805DA6E
:20702000787808B900F081F80120F0BD00202071787808B900F079F80020F0BD9C0100201B
:20704000A001002010B5040006480178491C01700021417000F069F8034804700178002985
:20706000FCD110BDA00100202310002010B5040002E0C068FFF7FEFC00F05DF820680028AA
:20708000F7D10348007808B900F04FF810BD00BFA10100202B48016851B1EFF30980A0F145
:2070A000240029490B6880E8F80F26490A68506000B5FFF7CDFD5DF804EB2248016871B119
:2070C000486890E8F80F20490B6000F1240080F309884EF0040E13F47F4F26D070471B485F
:2070E0004FF08071C1611A49816180F309884EF0040E704700F019F8204600BD00F015F8CD
:2071000000F00AF8FEE707E000B500F005F800F00CF85DF804EB0EE00E480F490160704723
:207120000E480F490160704700BF4FF0000080F31188704700BF4FF0800080F31188704787
:2071400000BF0000A8010020A0010020E81300200172000804ED00E00000001020ED00E082
:207160000000FFFF30B5134C134D2078401C2070FFF7DBFFFEF7A0FFFEF766FB214801685D
:20718000491C01600D480068081A03D4287850F001002870FFF7CFFF2078012803D1287801
:2071A00008B1FFF7B0FF2078401E2070BDE83040FFF7BBBFA001002022100020280000200B
:2071C00000B5FFF7B8FF0B480B4901602A48052101600A490F2000F019F8FF210F2000F08A
:2071E0004DF80F2000F014F800F00EF85DF804EBFFF71EBC14E000E03F190100657100080A
:20720000FEE700009C010020704700000020704710B50400FFF78FFF3B2C25DA102C09DB6B
:207220001349103C60110122E306DB0E9A4041F8202019E00F48042C03D1016851F480313A
:2072400011E0052C03D1016851F400310BE0062C03D1016851F4802105E00F2C04D10648D6
:20726000016851F002010160BDE81040FFF7E0BB00E100E024ED00E010E000E070B50400CF
:207280000D0000263B2C22DA102C04DBFFF753FF1048201817E00120042C04DA01220023F9
:2072A0000D2C06D106E00022072CF8DB0B2CF6DA0123002013431843000608D1FFF73BFFA5
:2072C0000548241F001906780570FFF7B1FB300070BD00BFF0E300E018ED00E0394930B555
:2072E000394C002041F8040B142241F8040B7FF4FE0541F8042B41F8040B41F81C090A682D
:2073000052F001020A60314A13681C4014600B682F4C1C400C600C687FF480231C400C60F0
:20732000146825402B4C15607FF4803520600C6825400D600C6823400B600B6853F48033E3
:207340000B600B689B03FCD4234B10251C6814F038041C601C6854F002041C601C68AC4341
:207360001C601C6854F010041C601368F024A343136013687FF46054136013681C401460F1
:20738000106010687FF4E06303401360080D106010687FF47C13034053F4E81010600F4851
:2073A0000123036008688001FCD410680321884350F002001060106810F00C000828FAD1ED
:2073C000012030BD0C1002400000FFF804100240FFFFF6FE08100240002002406000424262
:2073E0000748017891F0010101707047044910B509780C00814218BFFFF7F2FF200010BD0D
:20740000261000200020F1E70248034901600120ECE700BF08ED00E00040000870470000A0
:20742000704700007047000070470000704700007047000070470000704700007047000094
:20744000704700007047000070470000704700007047000070470000704700007047000074
:20746000704700007047000070470000704700007047000070470000704700007047000054
:20748000704700007047000070470000704700007047000070470000704700007047000034
:2074A000704700007047000070470000704700007047000070470000704700007047000014
:2074C00070470000704700007047000070470000704700007047000010B5874C206838B159
:2074E000E168226991421BD0FEF7F0FF00202060206958B9FEF7BAFF0F4940180140B1F597
:20750000007F02DA5FF0FF3010BD21612069FEF7BBFF206020692168E0600818606049B15F
:20752000FEF73EFF23692268A1696069FEF72AFF2068A060002010BD00FEFFFF10B56E4C22
:20754000206830B1FEF72CFF2068FEF7BFFF00202060002010BD000070B5040015D00B4D74
:207560002100A868FFF754F8FFF790F8261AFBD0A86869688019A860884224BF2868A86048
:20758000A868FEF711FFA41BEED170BD2C000020F0B5594D85B004002868002630B9029624
:2075A0000396082102A8FFF70DF82CE004A901A8FEF7F8FEA9680198471A04D1049828B9BA
:2075C000EF68012602E044BFE8683F18A74238BF3C4602960394082102A8FEF7F3FF64B141
:2075E000A8680199884209D369680F1AA74228BF27463800FFF7B0FFE41B14B12000FFF74D
:20760000ABFFFFF71FF805B0F0BD000003B50020019004E09DF8001001A8FFF7B1F90121F4
:207620006846FFF7ADF99DF8000030B9019890B15FF0FF30FEF7FAFF03BD012100A8401C56
:20764000FFF79EF99DF801000128E3D09DF80000FFF704F8E3E71C20FEF7F0FF0198FEF72C
:20766000EDFF0198FEF7A2FE1421FEF7ABFF03BD11B505E09DF8001014342000FFF780F935
:2076800001211D4C6846FFF77BF99DF80000B8B96069FEF78BFE01684268B1FBF2F1A2694D
:2076A000914238BFA16101688068B1FBF0F0A169814238BFA061FFF70FFFFEF7B7FF11BDDF
:2076C000012100A8401CFFF75BF99DF801000128D0D0022802D0042804D007E09DF8001053
:2076E0001834CAE79DF800101034C6E79DF80000FEF7B4FFC4E700002C00002001B508E025
:20770000012100A8401CFFF73BF99DF80000FEF7A5FF01216846FFF733F99DF8000000283C
:20772000EED1FFF70BFFFEF781FF01BD03B50020019004E09DF8001001A8FFF721F901218A
:207740006846FFF71DF99DF8000018B90198FFF71FFF03BD012100A8401CFFF711F99DF8E1
:2077600001000328E6D09DF80000FEF777FFE6E701B501216846FFF703F99DF800006628BF
:2077800002D1FFF7D3FF01BD642804D0652805D06E2806D001BDFFF76BFF01BDFFF7AEFFE3
:2077A00001BDFFF733FF01BDC8E60000024A282100FB0120C0687047100300200A000100A9
:2077C0002B48007800F0D8BC0A00010024480023007800F0E1BC00002548007800F072BE96
:2077E0001F4801E0224800BF0078DFE71C48012300780022012100F013BD000000B508B465
:20780000130000BF0A0001001548007800F02AFD02BD000013000A0001001548007800F0FD
:2078200099BC000010B5040000F06EFE0B4A142100FB0120FF2108308170C17001712278A2
:2078400063780121914001229A400A4302800448217801706178417010BD00BF50040020AE
:207860002710002001000248007800F06FBE0000281000200148410D016070471008014071
:20788000014800F0BDBD00BFC892000810B50E4C2078401C2070FFF748FC1748006801006F
:2078A00018BF8047FFF747FC2078012804D10748007808B1FFF727FC2078401E2070BDE897
:2078C0001040FFF732BC00BFA001002022100020094900B50860F0212320FFF7CFFCF0210D
:2078E0002420FFF7CBFC2320FFF792FC24205DF804EBFFF78DBC0000B80100200B4840216C
:20790000016000200021914A42F821008E4A42F82100491C2029F6D370470000034A0100E0
:20792000106813685918116070470000BC0200200D4B30B5254DC400002A2D6803D02C1993
:2079400013EB440403E02C19084D15EB44044900490821807D4912EB4000228813EB4202F2
:2079600041F8202030BD00BF006000400860004030B5164CC300002A246804D0E318114CAE
:2079800014EB430317E00025E3180F4C14EB43033F2906D24C08A4B2C90709D5641CA4B27D
:2079A00006E04C09A4B20125E1061CBF641CA4B2A10251EAC5311960634912EB400041F809
:2079C000203030BD046000400C600040505C0040874A11F4405112EB800002685140014A04
:2079E0000AE000BF8FBF0000814A11F0300112EB800002685140024A0A400260704700BFAD
:207A0000BF8F0000022A06D351F8043B921E022A20F8023BF8D20AB109680170704700003C
:207A2000A84800B55FF41E4140F8101B00210160FFF764FF0820FFF771FF002201000020E0
:207A4000FFF776FF002208211046FFF791FF0820FFF764FF012201000020FFF769FF01224E
:207A600008210020FFF784FF6148044940F84C1B802101605DF804EB00F0E2BC3032000079
:207A800000B500F0FDFC8F48016851F008010160016851F00401016000BD00001FB5544820
:207AA000284A01680A4002602748006800688405A40D08050ED52548220001686846FFF73A
:207AC000A1FF684601F06EF95FF440510020FFF77FFF1FBD54B11D482200016802A8FFF717
:207AE00091FF220002A9002000F0E0FB1FBD0000144AF0B504003E48250010EB85000168C7
:207B00000A400260104850F8350000688605B60D14D00E480A4F320050F835103800FFF7AE
:207B200071FF32003900200000F0C0FB4E48405D20B15FF440512000FFF74AFFF0BD00BFEC
:207B4000D00200208F0F00003C020020BC01002010B55D4C206810F41E40410505D57FF46F
:207B600080602060FFF75CFF10BDC1040AD57FF4805020605348082201689143016000F0CD
:207B800085FC10BD010505D57FF400602060FFF777FF10BD010407D4800523D57FF40070EB
:207BA000206010BDFFF77AFF206800041DD52068216801220007000F09090A400B4903008E
:207BC00008D1002AEED10A4A13681940116000F0DFFBE9E712B1FFF78BFFE5E7044B13EB54
:207BE0008002F1E77FF41E40206010BD0F8F0000005C004030B504000D00C4B100F000FA7E
:207C00008021014007D00DB1102100E020212000BDE83040E8E62DB15FF480512000BDE8D1
:207C20003040D5E65FF400512000FFF7DDFE30BD01490020D8E600BF10100000024950F005
:207C400080000860704700BF4C5C0040064900220A54704710B55FF440510400FFF7B8FEFF
:207C600001480121015510BDC002002000B500F08BFC12487FF4800201680A4040F80C2BF7
:207C800001687FF400020A4040F80C2B0168002251F4000101600B480321016001210160C0
:207CA00009490A60010D01600548FFF711FEFFF7B7FE5DF804EB00F05DBC00BF041002403A
:207CC000517B0008405C0040445C0040FFF7D2BD02490878401C0870C0B27047291000206E
:207CE00070B5417905884C06640E090654BF002601260079002120B1012805D0032806D07B
:207D000007E05FF4007104E05FF4806101E05FF4C0610EB1202001E05FF40050094A08432A
:207D2000204342F824002800FFF7F8FD320001002000FFF7FDFD320029002000BDE870405C
:207D400016E60000005C00407047000008B14020704708207047000070B50D4C150014EB93
:207D6000C0046468022D06D331F8026BAD1E022D44F8046BF8D20DB109782160054911EB5C
:207D8000C00149680A603021BDE870402CE60000BC0100203C02002000F0C6BA70470000ED
:207DA000002070477047000030B5BD4CE079800709D5012503E000F0B7FB6D1CEDB221781D
:207DC00028008842F7D330BD01000548814205D25FF40070014201D14008FBD1704700BFB0
:207DE000FF03000001004020814201D24008FBD17047000010B5040041B1B4F5007F02D307
:207E00005FF4007010BD022000F0DCFB402C24BF402010BD202C24BF202010BD102C24BF12
:207E2000102010BD082C24BF082010BD002010BD904A10B50400282004FB002082685218EE
:207E40008260C268511AC160C16809B1C07938B1200000F0A3FB034920000968896A884738
:207E600010BD0000AC0400202DE9F04F80461400804A5FF0FF3089462821824608FB0127E3
:207E80001D005646387C012801D1304637E000F07BFB834883469BF807008007800F022819
:207EA0002AD15CB1220049463800183000F0FAF80600A41B16EB090914B91DE0386AD8B9D2
:207EC000C7F80890FC60DBF85C104046C96A88478DB10999404611B100F06CFB01E000F0D8
:207EE00063FBF87918B1F9683019461A04E0F86808B1564600E0361900F03CFB3000BDE81C
:207F0000F08F0000F0B5040028200D005949160004FB001700F038FBB86840B126B13100DA
:207F2000200000F047FB02E0200000F03DFB00F021FBF868281AF0BD2DE9F14F584D0093DC
:207F40000400E86D884691468246002083462878082837D2474A282100FB0126DAF80420A7
:207F600041462000904707002CD0FF282AD028220021300000F0F8FF57EAC410707186F869
:207F80000480DAF814103800884707001CB90A98B84238BF074600F0A3FAC2B241463800E4
:207FA00000F096FA040004BF022000F00BFB34800098B0610A98F061A6F802902878834679
:207FC000401C28705846BDE8F28F0000294B00B50100002000E0401C084A1278904207DAD4
:207FE000282200FB023252798A42F4D1C0B200BD032000F0E7FAFF2000BD00005004002039
:208000001C4A282100FB01204079704759480078410801200840704770B5214C0126E56D98
:2080200008E01449282006FB0010A968761C8847E868804720788642F3DB70BD30B5184C75
:208040000C4D68220021200000F08EFF012020705FF4A0720021280000F086FFFFF710FCA9
:20806000E16D0020496988472880BDE8304000F075BA00001003002030B5094CE56D2868E6
:208080008047FFF7C9FF2A6C100003D021006031012090471020E0712869BDE830400047CA
:2080A000500400202DE9F0438846040015000020814600261EE0E068626841188A4238BFE3
:2080C00011460F1AAF4228BF2F4621683A00ED1B0918404600F03CFFA068F61917EB08080D
:2080E000C01BA060E068C019E0606168884208BFC4F80C90A1680DB10029DCD109B9C4F877
:208100000C903000BDE8F083F0B504000D00160017E0E2681018884228BF401A82199142CD
:2081200038BF0A46171AB74228BF374623683A002900181800F00CFFA068F61BED19C01959
:20814000A06036B1A06861680A1AE2D1012000F039FAF0BD30B5074D040000202D78AD07E9
:20816000AD0F022D05D108B420000123FFF77CFE01B030BD5704002000B5002308B4FFF72B
:2081800073FE02BD9D4B9860D9609F499A7100200968096B084700002DE9F0430400614859
:2081A000150088461F0081462CB199F80700800701D4002031E09149282004FB0016307C11
:2081C0000028F6D13079022806D13088401E284001D1680500D1002700F0D6F9B06858B171
:2081E000F1684018404504D1F0684019F060B7710BE0200000F0D8F9C6F80880F560B771BC
:20820000D9F85C102000096B884700F0B3F9F068281A02D1B17901B10120BDE8F0830000A0
:2082200070B5404E04001500F27900209207920F022A15D12A002000FFF7AEFF16F8602F11
:20824000291A2AB905002000FFF75CFE281870BD012905DB050000222000FFF753FE28183E
:2082600070BD0000F0B52F4F059E1500FA79040000209207920F022A16D12A002000FFF7D2
:208280008BFF17F8602F291A32B9050032002000FFF738FE2818F0BD012905DB05003200D7
:2082A0002000FFF72FFE2818F0BD00002DE9F0430C0028211500514A804600FB01261948F7
:2082C0008146404638B9D9F85820100027D029002000904723E0726910001EBF2946204650
:2082E0009047B06878B1F1688D422CBFF7682F464FB13A00210000F02BFE39004046FFF756
:2083000097FDED1BE41955B12A00210018363000FFF7FAFED9F85C104046896A8847BDE8DD
:20832000F0830000500400203449F0B5364E0400282004FB00153CB1687900065CBFFF2042
:2083400000F040F9307938B1A968F9B12F88E868B84206D2EF6804E0287DB8B901202875BF
:20836000F2E7336820003A005B6B9847E868C01BE860A868C019A860E86838B929888F4263
:2083800003D1A97909B1A871F0BDA860F0BD00001A49F0B51C4E04002820002704FB0015B9
:2083A00014B1307900B92F75A86820B12000FFF7BBFF3079B0B1307910B9E86800B9AF719C
:2083C000A86818B931682000896B884744B1A86840B9A87930B92000BDE8F04000F0DEB8BD
:2083E00000F0C4FCF0BD0000044B282200FB02321174054A1268126A104700001003002004
:208400000149086070470000AC040020F0B504000D0016001F001022002100F0A5FD2848E3
:208420006560A660E76001680A0000E012681AB1A242FBD10120F0BD216004600020F0BD62
:2084400030B50C4C0025E079E570FFF7E5FD424A012004E0282100FB0121401C0D742178C7
:208460008842F7DBE0791021014051F00800BDE830400FE05004002010480078704700004D
:208480000E48007850F0010004E000000B48007810F0FE00234910B5CA7982420DD0C871D2
:2084A0000748046805E0616808001CBFA06888472468002CF7D1FFF777FC10BD5704002068
:2084C000B8040020244A282100FB0120006A7047012900D178E4032900D183E4110089E493
:2084E000194800B500688069804701000220084000BD0000144800B50068806980470100FC
:208500000120084000BD0000064810B54478611C4170C9B2052924BF072000F053F820002A
:2085200010BD0000500400200B4A282100FB012100220A748A600A624A624B791B0648BFB1
:208540000A7500F02BB80000AC040020024B282200FB0230416170471003002010B50024C0
:20856000174810EBC400FEF7DDFC641C082CF7D310BD0000084800B54178491E41700906DF
:2085800008BFFEF7D2FD00BD00B5FEF7D4FD02484178491C417000BDA0010020084911EB34
:2085A000C000FEF7C3BC0000054911EBC000FEF70BBD0000024A491C12EBC000FEF71ABD86
:2085C000BC0400200028FDD1704700000100002000E0401C0A001278491C002AF9D170470D
:2085E0000100002003E0CA0748BF401C49080029F9D17047CA4A282110B500FB012002798F
:20860000012A15D0032A17D14488FFF773FF40B95FF48070844201D3FF240EE06CB90824C9
:208620000BE0112C01D3102407E034B9042404E04488112CF7D204B90124E0B210BD000017
:20864000002303608160426070470000026843689A4205D2836899540168491C01607047D4
:208660000420FFF7AFBF000030B504000D00C9B2FFF7ECFF290A2000BDE83040E6E70000EB
:208680002DE9F743E6485FF480720024804641466846FFF7D5FF09216846FFF7D7FF022167
:2086A0006846FFF7D3FF00216846FFF7DDFFDB48814699F801106846FFF7C8FF01216846DC
:2086C000FFF7C4FF00216846FFF7C0FFC0216846FFF7BCFF32216846FFF7B8FF31E02888AE
:2086E0000121B140084226D007216846FFF7AEFF05216846FFF7AAFF8949282006FB001709
:2087000068467979FFF7A2FF39796846FFF79EFFFFF7F0FE20B93888412824BF402038804E
:2087200039886846FFF7A0FF3000FFF763FF01006846FFF78BFF761C99F800008642CEDBEA
:20874000641C99F8010084423ADAD9F864201AB16946200052689047142004FB009535F8B8
:20876000080F4008FFF73CFF060009216846FFF76DFF04216846FFF769FFE1B26846FFF7C1
:2087800065FF00216846FFF761FFF1B26846FFF75DFFA9786846FFF759FFE9786846FFF78B
:2087A00055FF29796846FFF751FF00216846FFF74DFFA96808001CBF684688470126BBE784
:2087C000009888F802004046BDE8FE832DE9F74393485FF480720024804641466846FFF74E
:2087E0002FFF09216846FFF731FF07216846FFF72DFF00216846FFF737FF8848814699F832
:2088000001106846FFF722FF01216846FFF71EFF00216846FFF71AFFC0216846FFF716FF27
:2088200032216846FFF712FF00E0641C99F8010084426EDA142004FB009535F8080F4008DC
:20884000FFF7CEFE060009216846FFF7FFFE04216846FFF7FBFEE1B26846FFF7F7FE002176
:208860006846FFF7F3FEF1B26846FFF7EFFEA9786846FFF7EBFEE9786846FFF7E7FE2979F5
:208880006846FFF7E3FE00216846FFF7DFFEA96808001CBF68468847012610E039793888B7
:2088A0000022FFF715FE81B26846FFF7DDFE3000FFF7A0FE01006846FFF7C8FE761C99F889
:2088C00000008642B1DA28880121B1400842F5D007216846FFF7BAFE05216846FFF7B6FE71
:2088E0000F49282006FB001768467979FFF7AEFE39796846FFF7AAFEFFF7FCFD0028CDD1CB
:20890000D9F85C10F0B2496988473979012280B2C7E7009888F802004046BDE8FE8300007C
:208920001003002037B53D4D3D4C5FF4807268462100FFF785FE12216846FFF787FE0121FA
:208940006846FFF783FE5FF400716846FFF78CFE29796846FFF77AFE69796846FFF776FE48
:20896000A9796846FFF772FEC84801886846C9B2FFF76CFEFDF71CFF01006846FFF774FE79
:20898000FDF71AFF01006846FFF76EFE5FF480716846FFF769FE01216846FFF757FE02212C
:2089A0006846FFF753FE03216846FFF74FFE01212EE0000037B5194D194C5FF480726846D3
:2089C0002100FFF73DFE0A216846FFF73FFE06216846FFF73BFE5FF400716846FFF744FE8B
:2089E00029796846FFF732FE69796846FFF72EFEA9796846FFF72AFEA44801886846C9B2C3
:208A0000FFF724FE01216846FFF720FE002100BF6846FFF71BFE20003EBD0000500400202E
:208A2000FC040020012806D0022806D0032806D0EE2806D007E0FDF7C3BEFDF7C5BEFDF763
:208A4000C7BE02A070470020704700BF00000000F7B51D4C90B95FF4807268462100FFF73A
:208A6000EFFD04216846FFF7F1FD03216846FFF7EDFD14496846FFF7F7FD21E0FFF7D2FFE4
:208A8000050004BF0020FEBDFFF7A0FD06005FF4807221006846FFF7D3FD7100891CC9B22F
:208AA0006846FFF7D3FD03216846FFF7CFFD002704E0E95D68467F1CFFF7D6FDB742F8D387
:208AC0002000FEBD09040000FC040020294900B50968C96B0A0018BF884700BDFFF752BB52
:208AE000012200210120F9E710B50400FFF7F8FF024854F08001017010BD00BF53040020F8
:208B0000010030B5CA798B790025002053EA0224CA78012A08D0022A09D0032A0AD0062AFF
:208B20000CD0072A10D015E0FFF7FCFE12E0FFF7A7FD0EE08878FFF78BFF0BE0FFF7D0FCBC
:208B400048B1FFF737FF04E0FFF7CAFC18B1FFF73DFE857820B907480068406A804730BD6B
:208B600005B90578A54228BF254601222900FFF7B5FF30BDAC040020BB4A31B5C3788178AF
:208B8000D56D51EA032105D1C379817951EA0321022902D0686A804731BDD1794907F9D5DD
:208BA00001790078D27900248007800F92070BD4012802D9801E04D031BD00208DF80000BD
:208BC00018E00029F9D0E5E720B10128F5D0022804D00FE001208DF800000BE00800FFF7A4
:208BE000F5F9FF28D6D0294A282100FB0120007C8DF800008DF80140002202216846FFF732
:208C00006DFF31BDF0B502009078D3780C009649E6B250EA0320CD6D04D1D379907950EA82
:208C2000032002D0686A8047F0BDC8794007F9D510791278C9799207920F890714D422B1C9
:208C4000012AEFD0022A03D0F0BDFFF749FFF0BDFFF7BCF90700E5D10C48002C07BF0021C4
:208C6000017401210174F0E7002AEED0022AD9D1FFF7ACF90700FF2FD4D03100FFF7B4FB09
:208C8000002EE2D13800FFF721FFDEE7100300200021B7E70121B5E701B5FFF7B7F90022B2
:208CA0008DF8000016E000006F4901B58378CA6D13B98079012800D004E0C87910F00600B0
:208CC000062802D0506A804701BD00208DF80000002200BF01216846FFF700FF01BD00004C
:208CE00061490079CA6DCB7913F00603062B01D0506A00474978526A8142104771B51A4CA4
:208D000080788DF80000E06D9DF800100500012918D1FFF7E5FEE079012650F00200FFF73B
:208D2000B9FB0AE00021FFF75FFB3000FFF7CEFE3000FFF7F9FB761CF6B22178300088424B
:208D4000F0D307E069B9FFF7CBFEE07910F0FD00FFF7A0FB2A6C100005D069460020904780
:208D600071BD406A804771BD5004002030B53E4CE078000615D5E0784006400EE070E57862
:208D8000E16D2800C9698847E079002D05D050F00400BDE83040FFF77DBB10F0FB00FFF789
:208DA00079FB30BD2DE9F0422F4D040000276E780BE0142007FB005008300169080003D08F
:208DC0002000884700284DD07F1CB742F1D3E86D8146207810F0600002D0202832D02DE0CA
:208DE00060780B282AD8DFE800F0060A290E291216291A1D21252000FFF7BEFE32E020006D
:208E0000FFF746FF2EE02000FFF744FF2AE0A078FFF76AFE26E02000FFF772FE22E0FFF7AC
:208E20003BFF1FE02000FFF769FF1BE02000FFF73BFF17E02000FFF753FF13E0D9F82400E9
:208E400080470FE0002700E07F1CB742F6D2142007FB00500830C1680800F5D02000884756
:208E60000028F1D1BDE8F08250040020026802F8011B02607047000002681170090A517025
:208E8000921C02607047000002681170090A5170090A9170090AD170121D0260704700009C
:208EA0000170090A4170090A8170090A00F8031F704700004278017851EA02218278C078D2
:208EC00051EA024151EA00607047000000B5FEF732F90C484178491C417000F01FF8FEF7CE
:208EE00093FAFDF76BFFFEF76BF907490748084B022207B4074908486422FDF79BFFFEF7B4
:208F0000FDF807BDA00100206809000080060020E56400080C930008E80F0020004B184707
:208F200065110020FEE7000000F028B810B502E0401C491C521E4AB103780C78A342F7D068
:208F400002D25FF0FF3010BD012010BD002010BD10B50300002A04E011F8014B521E03F881
:208F6000014BF9D110BD0000C9B20300002A02E003F8011B521EFBD170470000014CA64641
:208F800020470000258F00088C46B0FBF1F10CFB110070478C4690FBF1F10CFB1100704772
:208FA0006A480168090604D50A49114A0A60114A0A60002140F80C1B0068400708D411486D
:208FC000054940F8041B062140F8041B03490160704700BF0420024055550000FF0F00002D
:208FE0000248034901600349016070470420024023016745AB89EFCD024801490160704744
:20900000AAAA000000300040F0B50C000500A80522D14E4E4E4FFFF7C3FF03E00F4815F501
:2090200080652418012C17DB022030600C480560306850F040003060FFF7DEFF3868C107A2
:20904000FAD4316802229143316010F0140FE5D0142038600720F0BD0020F0BD00FCFFFFE1
:20906000142002402DE9F0470600394F0C0015006D1C00F06FF800F071F880460020814698
:20908000FFF78EFF31486D0882460120CAF8000034F8020B26F8020B01E0FFF7ADFF38682D
:2090A000C007FAD4DAF8000001218843CAF80000386810F0140F05D0386850F01400386076
:2090C000042081466D1EE0D1404600F04BF800F04DF84846BDE8F08710B500F03BF8184889
:2090E0001849006880B2884223D1184CFFF758FFFFF776FF206850F400702060206850F017
:2091000020002060206850F040002060FFF774FF0F480068C007F9D420687FF400710140BE
:2091200021602068102188432060206850F0800020600548007808B900F01CF810BD00BFCC
:2091400000F8FF1FA55A0000A1010020102002400C200240004B184737710008004B184754
:2091600005740008004B1847ED730008004B1847316A0008004B18472B710008DF0F0000D3
:209180004C0000204C0000204C00000000000020A0910008DC0100002C100020A08F0008E2
:2091A000FF00000000E00000FFE0FFFFFFFF0000B80B0000313233343536000000000000FD
:2091C0009092000898920008004000000000000000000000000000000000000000100000E3
:2091E00000000000802500006613010181C0030000000000A5000000000000008D000000D9
:209200000000000081A9B199A38B93BBFFFFFFFFFFFFFF9EE7FFFFFFFFFFFFFFB6EDFFFF46
:20922000FFFFFFFFFF0000A50000000000000000FFFFFFFFFFFFFFFFFFFFFFFFFFFFFFFF9E
:20924000FFFFFFFFFFFFFFFFFFFFFFFF00000000F00000003358EA884A616E4665624D6159
:20926000724170724D61794A756E4A756C4175675365704F63744E6F7644656320AA440022
:2092800001000000FFFF0000000000000000000053454747455200004A2D4C696E6B00000D
:2092A000CD690008D16900080D68000881690008B96900081D6800081D69000845690008C4
:2092C00031680008D96800086D7C0008D17C0008E17C0008497D0008CD7C00084D7D000808
:2092E000A17D00083D7C0008F57B0008317C00084D7C0008557C0008997D0008597D0008B4
:209300009D7D0008A57D0008000000004D61696E5461736B00000000FFFF00002E0000EAD3
:2093200014F09FE514F09FE514F09FE514F09FE5FFFFFFFF10F09FE510F09FE50480004045
:20934000088000400C80004010800040783800201C800040FFFFFFFFFFFFFFFF0000000005
:209360000000000000000000000000004A2D4C696E6B2041524D2D53545237313120636F37
:209380006D70696C65642046656220313920323030372031363A32353A34340000000000E8
:2093A0000000000000000000000000000000000000000000000000000000000000000000AD
:2093C0000000000000000000000000000000000000000000000000000000000000000FE19D
:2093E0001F00C0E3120080E300F021E170D09FE51F00C0E31F0080E300F021E164D09FE592
:2094000064009FE50FE0A0E110FF2FE15C309FE50040A0E3004083E5204083E50040E0E38F
:20942000404083E50C40A0E31C4083E50040A0E3084083E50040A0E3184083E52020A0E3F8
:209440000000A0E36050A0E3050083E7041081E2045085E2012052E2FAFFFF1A10009FE5BA
:2094600010FF2FE1003C0020C03B0020A9A3004000F8FFFF9C8100400120704770B50C4C22
:209480000C4E82B02500241D03E003F075F90C350C34B54208D2616820682A688142F4D1D9
:2094A000002103F075F9F2E702B070BC01BC0047C8B90040F8B9004001C08FE21CFF2FE160
:2094C000044C054D054E064FAE462047002809D0BE4630475D810040B181004061810040B9
:2094E000C9810040044C054D0020AE462047044C044DAE4620470000B9B30040D381004089
:2095000029B400408DB400400023C36042610160891841608918816070470000F0B504003F
:209520000F00E5687E686069C0007119884201D201F0A0FB3F6833003A00E168206803F0D5
:2095400039F83300F01DC0083A18E168A06803F031F8E0688019E0602800F0BD7047000066
:2095600000B5C168C91DCB080021C16042688168006801F09FF800BD00B5C168C91DCB083B
:209580000021C16042688168006801F093F8002801D101F04FF800BDF0B504000D00074E18
:2095A000B54201D3771E00E02F003900200002F087FCE419ED1BF3D1F0BDC04601080000E9
:2095C000F0B50400164D2E6864369F492000FFF7A5FF9E49098847182000FFF7CDFF0028CC
:2095E0001CD1F80861680A1810787B075B0F06D0D840010050780822D21A904008431921FD
:209600000140092901D10020F0BDC00601D50320F0BD2868301A0128D7DA0220F0BDC04643
:209620006828002010B59EB0040001F003F8002820D12069C108626851180A784007400FC1
:2096400006D0C24013004A780821081A82401A4319201040092801D100200BE0D00601D5B0
:20966000032007E0202206A96846FFF74DFF6846FFF7A6FF1EB010BD01604260D21DD01049
:20968000400008187047000000B513005A07520FDB080068C01802F06FFF00BDF0B50C0038
:2096A0001D0006682168241DD008361857077F0F3A00300002F060FF034800683A186D1EF8
:2096C000F0D12000F0BDC046D8040020F5B583B00C0000200190009000980121014018209D
:2096E0004143584845180E2C01D2260000E00E2604980068B0425FD00098C00701D5002028
:2097000000E030000499086083492800FFF706FF07000120B040401E400002903F4940181D
:2097200002F010FF3E4909887A1801002800FFF7ABFF7A492800FFF7F1FE3A493A4A128844
:2097400080180860022E06D3771E74492800FFF7E5FE7F1EF9D172492800FFF7DFFE070089
:2097600002983249401802F0EDFE0100304800883A182800FFF788FF33492800FFF7CEFE41
:2097800032490988401828612800FFF7E7FE0E2E15D1E868C01DC7083A002968254800681B
:2097A00002F060FF3A00A9682348006802F05AFF22482969016002E021480068E860330064
:2097C0001848026803992800FFF768FF03900198002807D0FFF726FF002803D01C490E34B6
:2097E0000C6018E01648E96801602800FFF7B8FE002801D01649F3E7A41B0098401C0090AC
:209800000195002C00D067E72800FFF70BFF002801D00F490E6005B0F0BDC046000090E8A1
:209820008800002038050020860000200000A0E88A0000201C050020240500202C05002070
:209840003C05002004050020AC0400208C0000203405002030B5012851D02B4C002801D109
:20986000242102E0022803D13221200002F0F0F8E08B2349884201D301F0FCF9214DE18B41
:20988000280002F0E5F8228829002048FFF7F4FE010062881E48FFF7EFFEA28801001D48EA
:2098A000FFF7EAFEE28801001B48FFF7E5FE228901001A48FFF7E0FE628901001848FFF7FF
:2098C000DBFEA28901001748FFF7D6FEE28901001548FFF7D1FEA28C0100A048FFF7CCFEF5
:2098E000E28C01003648FFF7C7FE228D01003548FFF7C2FE628D01003348FFF7BDFE30BDD4
:2099000001040000A400002070000020A4040020BC040020C4040020CC040020D404002076
:20992000DC040020AC040020B4040020F0B581B0040017001E4D002B2FD12149FFF7EEFDAD
:2099400006000120B84040001A49401802F0FAFD01001948008832182000FFF795FE194EC0
:2099600031002000FFF7DAFD1449098840180090022F06D37F1E31002000FFF7CFFD7F1E9C
:20998000F9D111492000FFF7C9FD2000FFF7E6FDE06828600098206101E02868E060200014
:2099A000FFF7DEFD002801D100F044FE01B0F0BD40050020FEFF7FE8A00000209C00002007
:2099C000EC040020F4040020FC040020F1B5130002692C480078002834D0002B50D0FF2495
:2099E000294DD008009E766836185007400FB707FF0EC0190327BE433768002808D0C74034
:209A0000BC4676682027381A864067463E4337001E48006812183E0A2740E85D0706FF208A
:209A20003040285C00043843360A27003740EF5D3F020743300A285C38430860091D5B1EBE
:209A40001ED0CEE7002B1BD0D008009C646820185407640F8507ED0E64190325A843056883
:209A6000002C06D0E5402E0045682020001B854035430648006812180D60091D5B1EE3D1AC
:209A800001B0F0BD9000002094BA0040F804002030B582B00400714D30492800FFF73EFD63
:209AA000134802F04FFD01002D4802882800FFF7EBFD2800FFF784FD002816D10023022212
:209AC00069462800FFF732FF00280ED1022269462800FFF77BFF0098C006C00E1F2801D0D2
:209AE000042002E001982070002002B030BDC0460120D0E430B582B00400584D1749280055
:209B0000FFF70CFD144802F01DFD0100144802882800FFF7B9FD2800FFF752FD002819D1A4
:209B20000023022269462800FFF700FF002811D1022269462800FFF749FF0098C006C00EA3
:209B40001F2801D0042005E0019820700198000A6070002002B030BDB220D0E0E4040020FF
:209B60009E000020F1B591B00C0000250D2C01D2260000E00D26394F002D04D00D2E02D133
:209B80000120009029E00020009035493800FFF7C5FC0120B04080002E49401802F0D2FCCE
:209BA0002D490A8801003800FFF76EFD2D493800FFF7B4FC2C490988401838613800FFF78A
:209BC000CDFCF86801903800FFF7CAFC00283ED13800FFF727FD002839D1009B721C03A947
:209BE00038001830FFF7A2FE002830D11A2C12D30198F8603800FFF7B3FC002827D1ABB4AE
:20A000000D00FFF7FFFE00210220FFF78DFF0749060004202943FFF787FF0500354321007B
:20A020000520FFF781FF284370BD00BF1000002310B50400FFF71CFF10B15FF0FF3010BD15
:20A040002000FFF711FF002010BD000010B50C000221FFF7D3FF10B15FF0FF3010BD200005
:20A06000FFF7E6FF08B15FF0FF3010BD10B50C000221FFF7C3FF10B15FF0FF3010BD210028
:20A080000720FFF751FF10B17FF0010010BDFFF741FF002010BD000001000348E6E7000019
:20A0A00001000148D2E70000F0ED00E0F1B504000D0000211600FFF7A1FF10B15FF0FF301D
:20A0C000F2BD6846FFF7D4FE10B15FF0FF30F2BD022D12D36F1E6846FFF7CAFE10B15FF050
:20A0E000FF30F2BD0098A107C90EC84000900098641C7F1E06F8010BEDD16846FFF7B4FE00
:20A1000010B15FF0FF30F2BD0098A107C90EC84030702800F2BD0000F1B504000D000121E2
:20A120001700FFF76BFF10B15FF0FF30F2BD6846FFF79EFE10B15FF0FF30F2BD022D16D374
:20A140006E1E6846FFF794FE10B15FF0FF30F2BD009802222240D100C84000900098A41C70
:20A1600038700098000A7870BF1C761EE9D16846FFF77AFE10B15FF0FF30F2BD00980221BF
:20A180002140C900C8400090009807F8010B0098000A38702800F2BDF1B50D00140000274B
:20A1A000A10708BF01270221FFF728FF10B15FF0FF30F2BD6846FFF75BFE10B15FF0FF309E
:20A1C000F2BD022D1ED36E1E4FB96846FFF750FE68B15FF0FF30F2BD241D761E12D020000D
:20A1E000FFF746FE0028F7D05FF0FF30F2BD00982070010A6170010CA170000EE070241D48
:20A20000761EE2D16846FFF72FFE10B15FF0FF30F2BD0099200004F043FC2800F2BD000075
:20A220002DE9F14B884699460400150000208346484641102000FFF7E1FE10B15FF0FF300A
:20A240003CE04646A80709D14846042806D10120834601E0584608B1286816E02878494665
:20A2600002290CDB697850EA01204946032906DBE9780200A878090651EA0040104304226E
:20A280004B46D21A2240D10088400090002707E00228D3D138007F1C6428CFD0FFF7B2FD37
:20A2A0000098FFF715FE0128F2D119EB050519EB0404761ECED1FFF72DFE4046BDE8F28BFB
:20A2C0002DE9F043904604000D000026994606E0484617FA00F0241810EB0808ED1B3DB395
:20A2E000E743FFF77DFD032802D13F053F0D01E0BF05BF0D4846C7407F1CBD4238BF2F462A
:20A3000028B9424639002000FFF7D0FE0BE00128424604D139002000FFF7FEFE03E03900DF
:20A320002000FFF739FF002803D43618B842CFD03000BDE8F08300002DE9F043904600245E
:20A3400005000E00994606E0484617FA00F02D1810EB0808F61BDEB1EF43FFF741FD032815
:20A3600002D13F053F0D01E0BF05BF0D4846C7407F1CBE4238BF37460123834042463900BD
:20A380002800FFF74DFF002803D42418B842DBD02000BDE8F08300002DE9F041884644469C
:20A3A000060017001D00C0070DD564B100232A0001213000FFF784FF00284AD4241A0128E0
:20A3C00045D16D1C761C780037D4B0070FD5022C0DD301232A0001213000FFF771FF0028F2
:20A3E00037D4B4EB4004012831D1AD1CB61C380011D4042C0FD3A70802232A003900300013
:20A40000FFF75EFF002824D4B4EB8004B8421ED1B8002D183618022C0FD3670801232A00A5
:20A4200039003000FFF74CFF002812D4B4EB4004B8420CD178002D18361844B100232A005D
:20A4400021003000FFF73CFF002802D4241AB8EB0400BDE8F08100002DE9F04188464446E2
:20A46000060017001D00C0070DD564B100232A0001213000FFF760FF00284AD4241A012843
:20A4800045D16D1C761C780037D4B0070FD5022C0DD301232A0001213000FFF74DFF002855
:20A4A00037D4B4EB4004012831D1AD1CB61C380011D4042C0FD3A70802232A003900300052
:20A4C000FFF73AFF002824D4B4EB8004B8421ED1B8002D183618022C0FD3670801232A0009
:20A4E00039003000FFF728FF002812D4B4EB4004B8420CD178002D18361844B100232A00C1
:20A5000021003000FFF718FF002802D4241AB8EB0400BDE8F0810000F0B5050022480E00C2
:20A5200017000221FFF76AFD040010210220FFF7FBFC204315F8011B04000520FFF7F4FCA5
:20A54000010021430C003000FFF796FC2043361D7F1EEFD1F0BD0000F0B5040012480D0002
:20A5600016000221FFF74AFD070010210220FFF7DBFC010039430F0055F8041B0620FFF72A
:20A58000D3FC010014F8010B39430F0050F480310520FFF7C9FC38430700761EECD1FFF7AA
:20A5A000B9FC3800F0BD0000F0ED00E001B56846FFF776FD70B90098000305D5A148FFF7FA
:20A5C0006BFD6846FFF76CFD0098800344BF012002BD002002BD00009A4800B5FFF75CFD43
:20A5E00008B9FFF7E3FF00BD00B520B10648FFF753FD064803E09348FFF74EFD0448FFF75C
:20A600004BFD002000BD00BF0B005FA009005FA001005FA00B4810B5FFF73EFD10B15FF0EB
:20A62000FF3010BD0848FFF737FD10B15FF0FF3010BDFFF7BBFF04008248FFF72DFD2000DA
:20A6400010BD00BF0F005FA00D005FA071B57C4C4F4D01212000FFF709FDFFF7C1FB0328AF
:20A6600001D14C4900E04C492800FFF7FFFC734D2E68C8366846FFF713FD0098800102D5ED
:20A680002E68C83608E02868301AF3D55FF0FF3072BD2868301AF9D46846FFF701FD00980E
:20A6A0008001F6D400212000FFF7E0FC6548FFF7F3FCFFF77BFF72BD2DE9F14360485F4E6C
:20A6C0000025002480465F48814602E0FFF766FC01254846FFF7E0FC01214046FFF7C6FCDD
:20A6E000FFF790FB2A48290001D02A4900E02A49FFF7BCFC6846FFF7D3FC244A00990A4035
:20A7000001D1002804D5002DE0D05FF0FF303BE03768C83705E03068381AF6D46846FFF715
:20A72000BFFC00988001F6D53768C8373068381AEBD46846FFF7B4FC00988001F6D448466E
:20A74000FFF7AAFC3CB140480221FFF78FFC3F48B121FFF78BFC00214046FFF787FC74B921
:20A76000052002F05FF96846FFF79AFC0098000301D50124ADE7FFF719FF0028F9D0484679
:20A78000FFF78AFCFFF712FFBDE8F2830000F0FC0CED00E00100FA050400FA052DE9F14FFE
:20A7A000264D804626480024894682462548834600E001245846FFF76FFC01215046FFF74F
:20A7C00055FCFFF71FFB012002F02CF900F06EFF404602F027F900F06BFF484600B96420C6
:20A7E00002F020F9286800F2E836FFF7DFFE0700012F02D02868301AF7D55846FFF74CFC50
:20A800003CB111480221FFF731FC1048B121FFF72DFC00215046FFF729FC64B9052002F05D
:20A8200001F96846FFF73CFC00980003C1D4FFF7BDFE0028BDD03800BDE8F28F9C01002091
:20A84000FCED00E003005FA00000044004000440FCE6000030B504000D00FFF79FFF29000C
:20A860002000BDE83040F1E630B504000D00FFF723FF01281EBF29462046FFF7EBFF30BD16
:20A880002DE9F041904604000D00012603E000F00DFFFFF783FB4046022804D12900200042
:20A8A000FFF7D8FF0AE0012804D129002000FFF7CFFF03E029002000FFF7D6FF0700012FA8
:20A8C00001D0761EE3D500F0F3FE3800BDE8F0812DE9F343042101A801F0B8FC042168469A
:20A8E00001F0B4FC00985FF0FF3780460002000A0090044601F0BAFB05000098A84238BFCA
:20A900000546280001F0C0FB060018D0ACB1AC422CBFA946A1460198330042464946FFF745
:20A920003BFD07000CD40198E41B3900C0190190300001F047FC4F45E8D00098071B14B18E
:20A94000200001F04DFC16B1300001F0BFFB3800BDE8F6832DE9F04788460400914600258A
:20A960009A46504601F08AFC002601F08BFCB8EB00018F1B18B1402FF7D3032087435DB9F9
:20A98000504683194A4639002000FFF765FD0500BD4208BF0025E419F6194645E5D115B141
:20A9A0005FF0FF3000E04046BDE8F0872DE9F3475FF0FF308046042101A8474601F046FC75
:20A9C0000421684601F042FC009881460002000A0090044601F04AFB05000098A84238BF7C
:20A9E0000546280001F050FB06000DD114B1200001F034FC16B1300001F068FB3800BDE896
:20AA0000F6870198C01901908CB1AC422CBFAA46A2460198B4EB0A0433004A465146FFF732
:20AA200099FF0700E2D45745EBD04746DEE7009FE1E7000030B5A9B0002404E09DF80010C6
:20AA400021A80155641C0121684601F0FFFB9DF80000FF28F2D1220001A921A8FFF75CFD39
:20AA60000500A10001A801F0ADFB280029B030BD10B5AAB000240CE0042101A801F0E6FB31
:20AA80009DF8001022A80155019902A840F82410641C0121684601F0D9FB9DF80000FF2870
:20AAA000EAD1220002A922A8FFF756FD2AB010BD01B50121684601F0C9FB9DF80000FFF78E
:20AAC00093FD02BDA6E5000086E500006EE500000FB50020019014210291039004E09DF895
:20AAE000001001A801F0B2FB0121684601F0AEFB9DF8000030B9019A03990298FFF7C0FE92
:20AB000004B000BD012100A8401C01F09FFB9DF801000128E3D0022802D0032804D007E0BF
:20AB20009DF8001002A8DDE79DF8001003A8D9E79DF8000001F092FBD6E7000030B591B0FC
:20AB400002210500684601F081FBBDF8001001A801F07CFBBDF80000042803D301A803F089
:20AB6000A9FF00E01A481B49642D086010D0652D11D06E2D12D06F2D13D0792D14D07A2D0E
:20AB800015D07B2D16D07C2D17D0822D18D01AE0FFF79EFE16E0FFF709FF13E0FFF74AFF69
:20ABA00010E0FFF765FF0DE0FFF782FF0AE0FFF789FF07E0FFF788FF04E0FFF787FF01E0DA
:20ABC000FFF786FF0400200001F030FB11B030BDFF0000034C00002011B5684600F056FEE6
:20ABE0000400009880B201F01BFB0099200001F0E9FA11BD704700002DE9F34F01918046BE
:20AC0000022168460026002501F020FBBDF80000C01DC0108146032009FB00F001F034FAAD
:20AC2000040019EB040A19EB0A0B44B94846400001F014FB484601F0D3FA062545E04946EF
:20AC4000504601F003FB4946200001F017FB01F019FBB9EB00018F1B18B1FF2FF7DD3F203F
:20AC60008743FB00494506D1BDF80000C01D4007400FC01F1B18EDB2002D15D11F480078DF
:20AC800040B95846821950468119A01900F0B4FF050010E001280ED1584682195046811990
:20ACA000A01901F0C1F8F3E7DB1DDA1000215846801903F059FF019820B9390058468019F0
:20ACC00001F0A6FAF6194E45C1D10B48017801B90570019850B94046CF2804D0D52802D0F2
:20ACE00001F0B0FA02E0E8B201F096FA200001F0EDF9BDE8F38F00BF1C1000202A10002039
:20AD00002DE9F047BDF82070BDF82C5014008046BDF8240089469A46261802F00CF800F0EA
:20AD2000C3FC00F0C5FC3800471E00040FD05046C30022004946404600F05EFF71783078B5
:20AD400050EA0120BDF828100140A942EBD101F06FFCBDE8F087000070B585B00221684620
:20AD600001F074FA022101A801F070FA022102A801F06CFA022103A801F068FA022104A839
:20AD800001F064FABDF8000003214843093001F07BF90400BDF8000025182E1801462000BF
:20ADA00001F054FABDF80010280001F04FFA049B039A0299019892B289B280B29BB20FB4FC
:20ADC000BDF81030280032002100FFF799FFBDF810106BE02DE9F047144EBDF8207014004D
:20ADE0008046BDF8240089469A462518012001F019FE00F059FC00F05BFC3068C719504605
:20AE0000C30022004946404600F0F6FE6978287850EA0120BDF828100140BDF82C008142A6
:20AE200002D03068381AEAD5BDE8F0879C01002070B585B00221684601F008FA022101A8D4
:20AE400001F004FA022102A801F000FA022103A801F0FCF9022104A801F0F8F9BDF8000031
:20AE600003214843093001F00FF90400BDF8000025182E180146200001F0E8F9BDF80010B7
:20AE8000280001F0E3F9049B039A0299019892B289B280B29BB20FB4BDF81030280032003D
:20AEA0002100FFF797FFBDF8101000BF300001F089F9200001F00AF909B070BD03B500F00C
:20AEC000B7FDADF8000000F0BFFD8DF8020000F0C1FD8DF8030000F0C1FD8DF8040000F089
:20AEE000ABFD8DF8050000F0BFFD8DF8060000F0C3FD08218DF8070064E0000000B5042067
:20AF000001F08EF9044801F08BF95FF400605DF804EB01F085B900BFE32E000017485FF450
:20AF2000807101F04FB9000010B50B7804781C409C421CBF002010BD491C401C521EF4D16B
:20AF4000012010BD10B50D4CC0B05FF48071684601F07CF9E20C69462000FFF7E5FF20B1B5
:20AF6000E20C6946200000F09FFC0020FFF742FE002001F051F940B010BD000000FC000817
:20AF80000148042101F01EB95492000800B588B020220021684603F0E7FD0649684603F0C8
:20AFA0007FFD00208DF804002021684601F00AF908B000BD3358EA8803B5684600F03AFE89
:20AFC000062100BF684601F0FDF803BD00B500F0D9FC5DF804EB01F029B9000030B5A1B070
:20AFE0000421684601F032F9002500240CE0C00706D5280000F028FE01A941F82400641CC6
:20B0000000986D1C4008009000980028EFD11DE030B5A1B0002400250421684601F016F968
:20B0200001A90FE0C00709D55FF0FF30022D3CBF094850F8250041F82400641C00986D1C6E
:20B040004008009000980028ECD100BFA10001A801F0B8F821B030BD6000002003B50421D6
:20B06000684601F0F3F8042101A801F0EFF801990098A8E700B500F0F9FF5DF804EB01F00D
:20B08000D5B800000A485FF4807101F09BB8000000B5C0B05FF48071684601F0D7F8044826
:20B0A0005FF48072694600F0FFFB40B000BD000000F8000803B5012101A801F0C7F8009042
:20B0C00088B99DF80400FE2803D0FF2804D1032004E00548007801E000F0D0FA0090042185
:20B0E000684601F06FF803BD2A10002001B50221684601F0ABF80849BDF80000884204BF82
:20B100000020ADF80000BDF800005FF47A71484300F0F8FC01BD00BFFFFF000000F0C6BA1D
:20B1200000F0C6BA11B501216846012401F08EF8214600A8401C01F089F8022001F08EF8F7
:20B1400090B99DF800009DF8011051EA00201F49884205D01E49884202D01E49884200D104
:20B16000024C200001F062F811BD00BFFF03000001B5012100A8801C01F068F8012100A850
:20B18000C01C01F063F80121684601F05FF8012100A8401C01F05AF89DF800009DF80110CB
:20B1A00051EA00200949884205D00949884202D00849884209D19DF801309DF800209DF850
:20B1C00003109DF80200FFF7B9FC01BD0101000001030000010600000100002000E0401CF2
:20B1E000042806D2704A12EB001252898A42F6D170475FF0FF307047F0B59DF81450040086
:20B20000002000E0401C04280ED2674E16EB00167789002FF6D1316062497260337275726A
:20B2200074810968F160F0BD5FF0FF30F0BD000000B5FFF7D1FF002805D45A4A5A49126842
:20B2400011EB0011CA6000BD00B5FFF7C5FF002804D45549002211EB00114A8100BD000036
:20B2600030B5A5B0012100A8801C00F0EFFF042103A800F0EBFF042104A800F0E7FF0121DD
:20B2800000A8C01C00F0E2FF012102A800F0DEFF0221684600F0DAFF9DF80200642802D031
:20B2A000652822D025E0BDF8000058B930480188491C0180ADF80010BDF80000FFF78CFF72
:20B2C0000028F3D5BDF80000FFF7B2FF002810D59DF8080001B49DF80730059A0499BDF806
:20B2E0000400FFF789FF01B003E0BDF80000FFF7ABFF05A80190BDF8001001A8002403F020
:20B30000BBFB042101A803F0B7FB102101A803F0B3FB042101A803F0AFFB1BE0224810EBBE
:20B320000415296801A8641C03F0AEFB696801A803F0AAFB297A01A803F098FB697A01A82E
:20B3400003F094FB698901A803F096FBE96801A803F09AFB042CE1D300F06AFB010001A8E7
:20B3600003F092FB4C2105A800F02CFF25B030BD141000200B4830B5002504680DE00A480A
:20B3800010EB0510418939B1C168054A611A9142A4BF4089FFF758FF6D1C042DEFD330BD41
:20B3A000881300009C0100206800002000B500F049FC5DF804EBDDE71D4900B50A6810001E
:20B3C000012814DB7FF00042904208BF0120401C08601849884213DB642103F0DBFB18B1F6
:20B3E000002000F005FE0BE000F00AFE08E0002806D51148521E0A60824208BF00F070FC52
:20B4000000F016FB0F490D4A9042086809D30C4A90420ADA10B94868401C486008680A302B
:20B4200004E010B14868401C48600020086000BD7C060020B3020000F0D8FFFFD606000075
:20B44000005C2605600000200A4810B50168491C01600A290CD100240460FFF7ADFF064817
:20B460000168491C01600A2904BF0460FFF79EFF10BD00BFA8000020AC00002000B501F0EA
:20B480005AFC002000F0C4FDF9E7000010B50400C22C02D1FFF7BCFD10BDEB2C02D101F0C4
:20B4A00067FF10BDCE2C01D0CF2C07D1012000F0D5FE0028F5D10021E0B24FE0012800F0EE
:20B4C000A380022800F09280032800F08780042800F0A08005284AD0062800F09880072813
:20B4E00054D0092800F0A8800B28DAD0C0286BD0C12800F09880C72800F09B80C82866D0CE
:20B50000C92849D0CA284AD0CB284BD0CC284CD0CD2822D0D0284ED0D1284FD0D42850D0C6
:20B52000DC2827D0DD2828D0DE2841D0DF2862D0E62828D0E7282CD0E8286ED0E92810D073
:20B54000EA2811D0ED286BD0F02819D0F22855D0F32856D0FE2869D071E00021FFF74CFB19
:20B5600010BDFFF7DFFD10BDFFF702FE10BDFFF7BDFD10BDFFF7D2FD10BDFFF7D1FD10BDFC
:20B58000FFF724FD10BDFFF7C9FC10BDFFF796FC10BDFFF7D7FC10BD00F08AFA10BD00F023
:20B5A00089FA10BD00F08CFA10BD00F091FA10BD00F078F810BDFFF7CFFB10BDFFF738FCCC
:20B5C00010BDFFF757FD10BDFFF7F6FC10BD00F093FA00F03FFA00F01FFE10BD00F066F804
:20B5E000022001F01FFA00F063F810BD00F05AF8022001F017FA00F057F810BDFFF742FD60
:20B6000010BDFFF745FD10BDFFF7E6FA10BD00F0CFF810BDFFF772FC10BDFFF7B1FC10BD90
:20B62000FFF7B4FC10BDFFF7D9FC10BDFFF716FD10BDFFF73FFD10BDFFF712FE10BDFFF761
:20B640001DFF10BD30B50400100071B1020014F8010B504008224508C00752BF2846284611
:20B660005840521EF7D1491EF0D130BD024B00B5FFF7E8FF80B200BD0884000070B5084D11
:20B68000040028780600012803D1012C18BF01F08BFE200000F0E2FB2C70300070BD00BFE0
:20B6A0002A10002000F0F0B900F0F0B900F0F0B900F0F0B930B5064D040000222900FFF74F
:20B6C000D5FF615B884204BF002030BD012030BDFE5B000001000A780020202A06D1491CB0
:20B6E00004E00A2300FB0320303880B211F8012B302A01D33A2AF4D370470000214A2DE9BB
:20B70000F04389B069462424241F13590B51FBD100F22D184046001DFFF7DCFF81464046F7
:20B72000C01DFFF7D7FF040040460C30FFF7D2FF050040460F30FFF7CDFF0600002704E036
:20B7400000201BE07F1C0C2FFAD003206B4607FB00300322414603F0E9F90028F2D10A486A
:20B760000C21BFB2201800FB01701F2100FB0190182100FB01503C2100FB016009B0BDE81F
:20B78000F08300BF5892000830F8FFFF10B5FFF7B5FF04003C48FFF7B1FF04B108B901202B
:20B7A00010BDA0423CBF012010BD002010BD0000E0B5ADF2044D00205FF4806500F02CFD0E
:20B7C0002E480221ADF80000684600F03FFD5FF4806101A800F03AFDBDF800005FF4B8414C
:20B7E00088422DD101A8FFF7D1FF48B3254E2A4601A9300000F076F8370017F58067710C55
:20B8000001A800F023FD720C01A9380000F06AF815F58065ADB25FF4B8418D42EDD3300064
:20B82000FFF748FF05001CBF304600F069F8280000F0F2FC642001F0F5F800F051FA19E088
:20B8400001A800F210111748802203F081F907E05FF4806101A800F0F9FC15F58065ADB2C7
:20B86000BDF800108D42F3D3054801F0DBF8002000F0D2FC0DF2044DE0BD00BF55AA0000D4
:20B88000DC050000009C000800400008054A01000348137803B1100009B170220A60704784
:20B8A00010410008FC050020F0B504000D00160009E0002000F09CFB7F1CB7EB460FF8DB4D
:20B8C000002000F09DFB32002900200000F01CF832002900200003F029F900B9F0BD002724
:20B8E000EBE7000070B504000D001600310000F00FF8320029002000BDE87040D4E7000077
:20B900005FF4806100F004B8004B1847F1100020004B1847951000203A480B493B4A416011
:20B9200039490A60094A4A603A4A2021127812B1012A04D07047064A026001617047054A3C
:20B9400002604161704700BF34C84C444444454333443438344434382A485FF04431016073
:20B960000349416028482949016002494160704734C44C4444444544424800680106490F0A
:20B980005EE000002248006870470000184810B5434C01687FF0E0620A4052F08061016044
:20B9A000144800F0AFF81648134A016851F00C01016014485FF0443101604160C260124823
:20B9C000124A026041602021C16011480B4901603448012101700F4800210170FFF7CCFFDF
:20B9E000207010B1FFF798FF10BDFFF7B5FF10BD04000140204E0000E30400007011010009
:20BA00001810024000080140000C014044448444C80000201F10002010B92C48810C016074
:20BA20007047000010B92D48810C01607047000000487047E40C00000E4800680106090FA0
:20BA400001200840704700000A4800680106C90EF6E700000B480168F2E700000548006807
:20BA60000106890FECE70000024800680106890EE6E7000008080140024800680106490ED6
:20BA8000DEE70000080C01400EE0000019480CE0144801E0174800BF0221016070470000BB
:20BAA000201000201E1000200E480121016070470C4801E00F4800BF802101607047000054
:20BAC00002485FF48041016070470000140C014002485FF48041016070470000100C0140BC
:20BAE000004803E014080140024800BF20210160704700001008014000B5FFF7F1FF5DF813
:20BB000004EBF1E711490860C0B10D4A01460020914208D20B4A8A18B2FBF1F2D21E012A1E
:20BB200002DA012200E00022B54B1A60064AB2FBF1F1244A0A39116048BF1060704700BF9C
:20BB4000C05C15007F8D5B00808D5B00B00000202DE9F04705001B480E00904699464C460B
:20BB600000278246F00702D5FFF7B2FF01E0FFF7A7FFE80702D5FFF79DFF01E0FFF798FF1E
:20BB8000FFF7AEFFDAF800006D0876087F0808B100F01EFAFFF762FF08B157F08007FFF721
:20BBA000A3FFDAF8000008B100F012FA641ED9D108204946401AC74088F80070FFF778FFBB
:20BBC000BDE8F087B4000020F0B504000D0016001F0014F8011B15F8010B08233200FFF7F6
:20BBE000B7FF761C7F1EF4D1F0BD000000B5FFF7EBFF002000BD00002DE9F043804689469E
:20BC000016001F00FC0805D02300FFF7EFFF05000CD100E000257F077F0F07D04046015D59
:20BC20004846005D3B003219FFF792FF2800BDE8F08300000249016004218180704700BF84
:20BC4000006CDC0270470000154970B101280FD0022810D0032812D0042814D00A2816D01D
:20BC60000B2816D00C2816D017E00E48007870470D48006870470D48B0F9000070470C4898
:20BC8000B0F9000070470B48B0F9000070470888704748887047888870475FF0FF307047C7
:20BCA000BC0000201D100020C400002016100020181000201A10002030B56F4C2578FFF76C
:20BCC0005BFE40B16E48007810B10DB9FFF724FE0120207030BD15B12070FFF73DFE30BD3B
:20BCE00000B501F028F80348034A016889B20A430260FEE70CED00E00700FA057047000018
:20BD0000704700002DE9F14F374F009204003C4898460D000026C1468246202083467FF01E
:20BD20007040E107396803D5084050F0405002E0084050F0004038608020E90754BF78611C
:20BD40003861C7F810B0DAF8000064086D0800F03FF9C7F814B0DAF80000F605360E00F06C
:20BD600037F9B868C00648BF56F080064846401E8146D4D1009808214246891ACE40067012
:20BD80000020BDE8F28F00002DE9F0439046002220249946144D7FF07046C7072F6803D536
:20BDA0003E4056F0405602E03E4056F000462E608026CF0754BF6E612E612C612C616C61DB
:20BDC000AD6840084908D205120EED0648BF52F080025B1EDED108204946401AC24088F845
:20BDE00000200020BDE8F0830008014010B5044C246814B1BDE8104084E7BDE81040C3E73D
:20BE0000B8000020F0B504000D0016001F0014F8011B15F8010B08233200FFF7E7FF761C53
:20BE20007F1EF4D1F0BD00002DE9F04180460C0015001E00F70804D03B00FFF7E3FF58B9B0
:20BE400000E00020710707D04046C15DE05D73075B0FEA19FFF7CAFFBDE8F081064A074956
:20BE600012783AB1064A127822B10A78824201D0087051E508707047201000201F1000200D
:20BE80001E1000201E481A4A424B00B501680A43026018487FF4706201680A4052F4006131
:20BEA000154A01601548410D8160242141600021C1601B681B01B2FBF3F2374B521C520893
:20BEC000120102602D4A1B681360344B2A4A1B6813602B4A1160416851F4005141601021A0
:20BEE000352000F0CBFF352000F092FF00BD00BF04400000040801400044950808380140EE
:20BF0000181002400248042201689143016070470C38014072B6194A126802601648006840
:20BF2000086062B67047000072B614490968421A012A08DA184A1368184AC01A12689A1826
:20BF4000521A0F4908600C48026062B67047000009490A4B10B50A681C6852B1521E04F85F
:20BF6000010B05D106480024026804600A4804680A601C6010BD0000DC000020D80000203A
:20BF8000E000002003480160034802600348036078E70000CC000020D0000020D40000206B
:20BFA000B0E70000B6E70000BEE70000004870477C92000801480068C0B2C9E70438014043
:20BFC000704700007047000000487047FF4F0020401EFDD170470000124A0A214143515CEB
:20BFE00009B1FFF719BDFFF71DBD0000704700000C4A0A21012341435354FFF70DBD0000A4
:20C00000084A0A21002341435354FFF70BBD0000044A0A2100FB01210A7892F001020A7080
:20C02000DAE70000E40000202748006808B97047080041680029FAD0026883188B42F7D1AE
:20C040004B684360096851180160F2E70022426001601D490A6812B908607047111D0A68EF
:20C060000AB19042FAD242600860DDE716490020096804E00A68904238BF1046496800295A
:20C08000F8D100B10838704710B501000020C91D072291430C4A083100E01A1D136893B101
:20C0A0001C68A14208D218005B1813600268521A1A6042685A6003E0EFD118005B6813609C
:20C0C00008B140F8081B10BDF000002000B518B150F8081DFFF7BAFF00BD0000072291431B
:20C0E000B4E7000011B5204CFFF76EFF011B491C20001E4CFFF7F2FFFFF748FC1C48FFF78A
:20C1000001FD0120FEF776FDFFF792FCFFF76EFF0020FFF76DFF00F0BDF81BE0FFF768FF32
:20C1200001202060FFF7EAFD684600F0D3F858B9FFF7E6FD5FF0FF3020600020FFF760FFBB
:20C140009DF80000FFF7A2F900F036F80028E5D000F0B2F800F0BCF80028F5D1FFF758FF45
:20C16000322000F05FFCF5E7081400207C060020204E000011B54F4C00F02EFA20B9022185
:20C18000200000F037FD11BD0021684600F014FA200000F019FD11BD00B500F01DFA40B11F
:20C1A00000F018FA012804DB48483F490160012000BD002000BD000044480068806800471E
:20C1C00000F028B900B50A00024303D03F4A12689269904700BD00003C4A1268126A104752
:20C1E00030B588B00400684600212022121F8150FCD1212C34BF25462025344A29006846F9
:20C20000126892699047641BF3D108B030BD00002E4A1268D269104701B5012102E00000AC
:20C2200001B502216846FFF7CDFF01BD01B50421F8E700006846FFF7CFFF01BD01B5042132
:20C24000F8E7000021480068406A004709B9002070471E4A1268D2681047000030B588B014
:20C260000400212C34BF2546202529006846FFF7EDFF08B9641BF4D108B030BD134A126890
:20C280001269104711480068006800470F48006840680047074800B500F044FC00F09CF8F6
:20C2A0000A480149016000BDA0920008014800F069BC0000F800002000B5FFF781FF03489E
:20C2C000006840695DF804EB00470000F400002000F082B910B50400FFF76EFF08B1FFF7A8
:20C2E000EBFF00F085F9FFF745FFFFF755FF0028F9D001212000FFF7A9FF040000F080F924
:20C30000200010BD01B50023002001B440220221012001F011FC084B8DF80400402001B4ED
:20C3200002460221002001F007FC8DF8090002A801F078F807BD00BF1401002010B5020066
:20C34000244C0A2310000A2102F01EFC3030E0540A20B2FBF0F25B1EF4D110BD0A480078D7
:20C36000012802D0022802D004E0084800E008480068E3E70748007804283EBFA64900F25F
:20C3800001100880704700BF01F8000800FC000808F8000800F80008FFF788BF00B501F09E
:20C3A0006BFE8007800F022818BFFFF77FFF00BD984800887047000097480088704700008F
:20C3C00096480068704700009548006870470000004870471400002000B5FFF7BFFF01F0D7
:20C3E0002DFCFFF78FFF01F047FC054801F03AF804490548002300225DF804EB01F006BE14
:20C40000996700089D670008040100206E480078704700006C4800210170704700B5FFF756
:20C42000D1FD0A2000F0FEFA5DF804EBFFF7C8BD2DE9F04F8B466449884698F800100029F3
:20C4400048D14D4D040034482F685E46814607B34020C01B86422CBF8246B2465246210086
:20C460004846C01902F074FB1AEB07071AEB0404B6EB0A06402F0CD165480022402103683C
:20C48000484600F0BBFF40281CBF012088F800000027B009800182460FD05D48002251461A
:20C4A0000368200000F0AAFF50451CBF012088F800001AEB0404B6EB0A062EB13200210057
:20C4C000484602F045FB37002C482F605A46016889180160BDE8F08FF0B5284C2068D0B111
:20C4E000394D2978B9B9244E0027316861B1484801220368084800F081FF316888421CBF43
:20C5000001202870376005E0810603D1400518BF00F06CFF2760F0BD5401002070B52A4ECE
:20C5200004000D00307860B9FFF7D6FF3848012229000368200000F061FFA8421CBF0120D1
:20C54000307070BD30B505001F480C00007888B90948006808B1FFF7BFFF2100280000F099
:20C5600033FF0648A1061EBF0021016030BD01680919016030BD0000940100209801002001
:20C5800070B5114E04000D00307810B15FF0FF3070BD1F480268200000F03CFFA84209D013
:20C5A0002A000021200002F0DFFA012030705FF0FF3070BD002070BD034A127812B15FF0A3
:20C5C000FF30704700F0FABE2110002000F00ABF00F006BF00F000BF00B501F04DFD8007E8
:20C5E000800F022804BF012000BD002000BD00000748064902680A60002101607047000059
:20C600000249034809680160704700000001002010000020480000204A0000202000002098
:20C6200024000020004870470812002068467047034800B5007808B900F077FB00BD0000C0
:20C64000A101002010B52A4C2078401E207000060ED100F070FB7C48007828B10120207051
:20C6600000F052FB00202070607808B900F05DFB10BD00002DE9B04181680022904631B155
:20C680000A68496802B151600A60C0F80880417C174C8907890F417411D16C490A68A2B908
:20C6A0000860207830B90120207000F02DFB0020207004E06448017851F002010170607882
:20C6C00008B900F032FBBDE8B081037C157C9D42E6D38242E5D0AB42F1D105002D68002D0F
:20C6E000EDD02F7CBB42EAD19542F7D1D8E70000A00100203A4930B50400207C00E0110002
:20C700000A6812B1157CA842F9D3226061610C6042B15461127C21002431824214BF00208A
:20C7200048780870607C20B900F005FB2000FFF7A1FF30BDF0B5994C974D274E274F00F030
:20C74000FAFA4148017811F0FE010170286810F57A6020600DE0386001683160002101746E
:20C760003868816000F0E1FA38684068804700F0E2FA306830B181682A68891A0129EADB0C
:20C780008068206000F0D1FA1548066807E0F0682168411A48BF206000F0C7FA3668CEB133
:20C7A00000F0C9FA2948016821B1317C0068007C81420FD3707C4007EED5F0682968401AAB
:20C7C0000128E4DA3000FFF755FF00F0B4FA707C0028DCD1F0BD00BFB0010020B401002087
:20C7E000A401002030B500F0A6FA914804681648017811F0FB01017000F097FA0CB32568A8
:20C80000FDB1207C297C81421BD100E00D00296811B10A7C8242F9D000F08DFA0B480168F4
:20C82000A14204BF21680160606921680160486165612868206000B1446145F8244B687854
:20C84000287000F072FA30BD22100020AC0100202DE9F04F0020002180464D4801707048BE
:20C860000121017072488146D9F8000030B1816A21B109680A001CBF40688847424D5B4836
:20C88000424C8246287850B1D9F80000217800F8241F9AF80000400748BFFFF7A3FF3D48FF
:20C8A0008346DBF8000050B304E03068CBF8000000F03BFA00F03FFADBF80060FEB1777C77
:20C8C00038001CD0780710D53349F0680968411A012905DA3000FFF7CDFE707C28B90EE07B
:20C8E0002E490A68821A48BF086017F0FB001028DBD1B06880684068407C0028D5D100F03C
:20C900001AFA9AF80000C00712D49AF8000010F0FD008AF80000DBF8000048B3DBF8000012
:20C92000407C50B1DBF8000080688068406806E000F0FBF9FFF7FEFEE1E7DBF80000C9F8D7
:20C940000000006A0078CD281CBF782000F07AF9D9F80000816A21B149680A001CBF40685E
:20C960008847D9F80000243000782070287008E0287020702A48C9F800800021017000F0DE
:20C98000D4F9BDE8F08F00BF2510002024100020A1010020AC0100209C01002028000020AA
:20C9A00030B51F4C2578681C207000F0ADF96078257008B900F0B9F930BD000010B500F06E
:20C9C000AFF9174801210170407808B900F0ADF9FFF728FE0400FFF729FE021B203A012ACF
:20C9E000A2BFCD21204602F0BFF810BD2210002010B504000A48007830B100F096F90B4874
:20CA00000068001B0AD5FAE700F095F908480168CC60006804214174FFF7C2FF10BD0000AA
:20CA2000A0010020014909684018E1E79C010020A80100202DE9F047089E099F0400884667
:20CA400091469A462C22002102F08EF8251D85F80C900A9884F82500404608B1C5F814800A
:20CA6000EE61AF613A00CD21300002F07DF8F019483807218843002101605FF080710164F5
:20CA80000749C163C0F844A0286006480178491C01702000FFF72EFEFFF7D4FDBDE8F0873C
:20CAA000F5700008A00100207FB50C4E0400029430680D000194039000F03DF92068009015
:20CAC00068462060009808B16946416030686946816030684574FFF763FF7FBDA8010020B1
:20CAE000FFB50F4F0400029438680D0016000194039000F020F920680090684620600098B8
:20CB000008B16946416038686946C66038688160386855F004014174FFF742FFFFBD00BFC5
:20CB2000A80100200822002102F01EB830B50D4C05002078401C207000F0FDF86078401C39
:20CB40006070280000F01EF8280000F00DF86078401E6070000608BF00F0E7F8BDE8304003
:20CB6000FFF770BDA001002010B5040000F0E3F8002020710248007808B900F0D6F810BD7E
:20CB8000A101002030B50F4C050000F0D4F86078401C6070286850B12078401C2070002099
:20CBA0002871280000F062F8FFF74CFD01E0012028716078401E6070000608BF00F0B5F820
:20CBC00030BD00BFA001002010B5040000F0B3F8207928B948212000BDE81040FFF764BF73
:20CBE000002020710248007808B900F09EF810BDA1010020F0B5114D114F04000E0000F087
:20CC00009AF828688619207980B9320048212000FFF766FF00F08FF82868301A012805DA12
:20CC2000787808B900F081F80120F0BD00202071787808B900F079F80020F0BD9C010020BF
:20CC4000A001002010B5040006480178491C01700021417000F069F8034804700178002929
:20CC6000FCD110BDA00100202310002010B5040002E0C068FFF7FEFC00F05DF8206800284E
:20CC8000F7D10348007808B900F04FF810BD00BFA10100202B48016851B1EFF30980A0F1E9
:20CCA000240029490B6880E8F80F26490A68506000B5FFF7CDFD5DF804EB2248016871B1BD
:20CCC000486890E8F80F20490B6000F1240080F309884EF0040E13F47F4F26D070471B4803
:20CCE0004FF08071C1611A49816180F309884EF0040E704700F019F8204600BD00F015F871
:20CD000000F00AF8FEE707E000B500F005F800F00CF85DF804EB0EE00E480F4901607047C7
:20CD20000E480F490160704700BF4FF0000080F31188704700BF4FF0800080F3118870472B
:20CD400000BF0000A8010020A0010020E81300200172000804ED00E00000001020ED00E026
:20CD60000000FFFF30B5134C134D2078401C2070FFF7DBFFFEF7A0FFFEF766FB2148016801
:20CD8000491C01600D480068081A03D4287850F001002870FFF7CFFF2078012803D12878A5
:20CDA00008B1FFF7B0FF2078401E2070BDE83040FFF7BBBFA00100202210002028000020AF
:20CDC00000B5FFF7B8FF0B480B4901602A48052101600A490F2000F019F8FF210F2000F02E
:20CDE0004DF80F2000F014F800F00EF85DF804EBFFF71EBC14E000E03F19010065710008AE
:20CE0000FEE700009C010020704700000020704710B50400FFF78FFF3B2C25DA102C09DB0F
:20CE20001349103C60110122E306DB0E9A4041F8202019E00F48042C03D1016851F48031DE
:20CE400011E0052C03D1016851F400310BE0062C03D1016851F4802105E00F2C04D106487A
:20CE6000016851F002010160BDE81040FFF7E0BB00E100E024ED00E010E000E070B5040073
:20CE80000D0000263B2C22DA102C04DBFFF753FF1048201817E00120042C04DA012200239D
:20CEA0000D2C06D106E00022072CF8DB0B2CF6DA0123002013431843000608D1FFF73BFF49
:20CEC0000548241F001906780570FFF7B1FB300070BD00BFF0E300E018ED00E0394930B5F9
:20CEE000394C002041F8040B142241F8040B7FF4FE0541F8042B41F8040B41F81C090A68D1
:20CF000052F001020A60314A13681C4014600B682F4C1C400C600C687FF480231C400C6094
:20CF2000146825402B4C15607FF4803520600C6825400D600C6823400B600B6853F4803387
:20CF40000B600B689B03FCD4234B10251C6814F038041C601C6854F002041C601C68AC43E5
:20CF60001C601C6854F010041C601368F024A343136013687FF46054136013681C40146095
:20CF8000106010687FF4E06303401360080D106010687FF47C13034053F4E81010600F48F5
:20CFA0000123036008688001FCD410680321884350F002001060106810F00C000828FAD191
:20CFC000012030BD0C1002400000FFF804100240FFFFF6FE08100240002002406000424206
:20CFE0000748017891F0010101707047044910B509780C00814218BFFFF7F2FF200010BDB1
:20D00000261000200020F1E70248034901600120ECE700BF08ED00E0004000087047000044
:20D02000704700007047000070470000704700007047000070470000704700007047000038
:20D04000704700007047000070470000704700007047000070470000704700007047000018
:20D060007047000070470000704700007047000070470000704700007047000070470000F8
:20D080007047000070470000704700007047000070470000704700007047000070470000D8
:20D0A0007047000070470000704700007047000070470000704700007047000070470000B8
:20D0C00070470000704700007047000070470000704700007047000010B5874C206838B1FD
:20D0E000E168226991421BD0FEF7F0FF00202060206958B9FEF7BAFF0F4940180140B1F53B
:20D10000007F02DA5FF0FF3010BD21612069FEF7BBFF206020692168E0600818606049B103
:20D12000FEF73EFF23692268A1696069FEF72AFF2068A060002010BD00FEFFFF10B56E4CC6
:20D14000206830B1FEF72CFF2068FEF7BFFF00202060002010BD000070B5040015D00B4D18
:20D160002100A868FFF754F8FFF790F8261AFBD0A86869688019A860884224BF2868A860EC
:20D18000A868FEF711FFA41BEED170BD2C000020F0B5594D85B004002868002630B90296C8
:20D1A0000396082102A8FFF70DF82CE004A901A8FEF7F8FEA9680198471A04D1049828B95E
:20D1C000EF68012602E044BFE8683F18A74238BF3C4602960394082102A8FEF7F3FF64B1E5
:20D1E000A8680199884209D369680F1AA74228BF27463800FFF7B0FFE41B14B12000FFF7F1
:20D20000ABFFFFF71FF805B0F0BD000003B50020019004E09DF8001001A8FFF7B1F9012198
:20D220006846FFF7ADF99DF8000030B9019890B15FF0FF30FEF7FAFF03BD012100A8401CFA
:20D24000FFF79EF99DF801000128E3D09DF80000FFF704F8E3E71C20FEF7F0FF0198FEF7D0
:20D26000EDFF0198FEF7A2FE1421FEF7ABFF03BD11B505E09DF8001014342000FFF780F9D9
:20D2800001211D4C6846FFF77BF99DF80000B8B96069FEF78BFE01684268B1FBF2F1A269F1
:20D2A000914238BFA16101688068B1FBF0F0A169814238BFA061FFF70FFFFEF7B7FF11BD83
:20D2C000012100A8401CFFF75BF99DF801000128D0D0022802D0042804D007E09DF80010F7
:20D2E0001834CAE79DF800101034C6E79DF80000FEF7B4FFC4E700002C00002001B508E0C9
:20D30000012100A8401CFFF73BF99DF80000FEF7A5FF01216846FFF733F99DF800000028E0
:20D32000EED1FFF70BFFFEF781FF01BD03B50020019004E09DF8001001A8FFF721F901212E
:20D340006846FFF71DF99DF8000018B90198FFF71FFF03BD012100A8401CFFF711F99DF885
:20D3600001000328E6D09DF80000FEF777FFE6E701B501216846FFF703F99DF80000662863
:20D3800002D1FFF7D3FF01BD642804D0652805D06E2806D001BDFFF76BFF01BDFFF7AEFF87
:20D3A00001BDFFF733FF01BDC8E60000024A282100FB0120C0687047100300200A0001004D
:20D3C0002B48007800F0D8BC0A00010024480023007800F0E1BC00002548007800F072BE3A
:20D3E0001F4801E0224800BF0078DFE71C48012300780022012100F013BD000000B508B409
:20D40000130000BF0A0001001548007800F02AFD02BD000013000A0001001548007800F0A1
:20D4200099BC000010B5040000F06EFE0B4A142100FB0120FF2108308170C1700171227846
:20D4400063780121914001229A400A4302800448217801706178417010BD00BF5004002052
:20D460002710002001000248007800F06FBE0000281000200148410D016070471008014015
:20D48000014800F0BDBD00BFC892000810B50E4C2078401C2070FFF748FC17480068010013
:20D4A00018BF8047FFF747FC2078012804D10748007808B1FFF727FC2078401E2070BDE83B
:20D4C0001040FFF732BC00BFA001002022100020094900B50860F0212320FFF7CFFCF021B1
:20D4E0002420FFF7CBFC2320FFF792FC24205DF804EBFFF78DBC0000B80100200B48402110
:20D50000016000200021914A42F821008E4A42F82100491C2029F6D370470000034A010084
:20D52000106813685918116070470000BC0200200D4B30B5254DC400002A2D6803D02C1937
:20D5400013EB440403E02C19084D15EB44044900490821807D4912EB4000228813EB420296
:20D5600041F8202030BD00BF006000400860004030B5164CC300002A246804D0E318114C52
:20D5800014EB430317E00025E3180F4C14EB43033F2906D24C08A4B2C90709D5641CA4B221
:20D5A00006E04C09A4B20125E1061CBF641CA4B2A10251EAC5311960634912EB400041F8AD
:20D5C000203030BD046000400C600040505C0040874A11F4405112EB800002685140014AA8
:20D5E0000AE000BF8FBF0000814A11F0300112EB800002685140024A0A400260704700BF51
:20D60000BF8F0000022A06D351F8043B921E022A20F8023BF8D20AB10968017070470000E0
:20D62000A84800B55FF41E4140F8101B00210160FFF764FF0820FFF771FF00220100002084
:20D64000FFF776FF002208211046FFF791FF0820FFF764FF012201000020FFF769FF0122F2
:20D6600008210020FFF784FF6148044940F84C1B802101605DF804EB00F0E2BC303200001D
:20D6800000B500F0FDFC8F48016851F008010160016851F00401016000BD00001FB55448C4
:20D6A000284A01680A4002602748006800688405A40D08050ED52548220001686846FFF7DE
:20D6C000A1FF684601F06EF95FF440510020FFF77FFF1FBD54B11D482200016802A8FFF7BB
:20D6E00091FF220002A9002000F0E0FB1FBD0000144AF0B504003E48250010EB850001686B
:20D700000A400260104850F8350000688605B60D14D00E480A4F320050F835103800FFF752
:20D7200071FF32003900200000F0C0FB4E48405D20B15FF440512000FFF74AFFF0BD00BF90
:20D74000D00200208F0F00003C020020BC01002010B55D4C206810F41E40410505D57FF413
:20D7600080602060FFF75CFF10BDC1040AD57FF4805020605348082201689143016000F071
:20D7800085FC10BD010505D57FF400602060FFF777FF10BD010407D4800523D57FF400708F
:20D7A000206010BDFFF77AFF206800041DD52068216801220007000F09090A400B49030032
:20D7C00008D1002AEED10A4A13681940116000F0DFFBE9E712B1FFF78BFFE5E7044B13EBF8
:20D7E0008002F1E77FF41E40206010BD0F8F0000005C004030B504000D00C4B100F000FA22
:20D800008021014007D00DB1102100E020212000BDE83040E8E62DB15FF480512000BDE875
:20D820003040D5E65FF400512000FFF7DDFE30BD01490020D8E600BF10100000024950F0A9
:20D8400080000860704700BF4C5C0040064900220A54704710B55FF440510400FFF7B8FEA3
:20D8600001480121015510BDC002002000B500F08BFC12487FF4800201680A4040F80C2B9B
:20D8800001687FF400020A4040F80C2B0168002251F4000101600B48032101600121016064
:20D8A00009490A60010D01600548FFF711FEFFF7B7FE5DF804EB00F05DBC00BF04100240DE
:20D8C000517B0008405C0040445C0040FFF7D2BD02490878401C0870C0B270472910002012
:20D8E00070B5417905884C06640E090654BF002601260079002120B1012805D0032806D01F
:20D9000007E05FF4007104E05FF4806101E05FF4C0610EB1202001E05FF40050094A0843CE
:20D92000204342F824002800FFF7F8FD320001002000FFF7FDFD320029002000BDE8704000
:20D9400016E60000005C00407047000008B14020704708207047000070B50D4C150014EB37
:20D96000C0046468022D06D331F8026BAD1E022D44F8046BF8D20DB109782160054911EB00
:20D98000C00149680A603021BDE870402CE60000BC0100203C02002000F0C6BA7047000091
:20D9A000002070477047000030B5BD4CE079800709D5012503E000F0B7FB6D1CEDB22178C1
:20D9C00028008842F7D330BD01000548814205D25FF40070014201D14008FBD1704700BF54
:20D9E000FF03000001004020814201D24008FBD17047000010B5040041B1B4F5007F02D3AB
:20DA00005FF4007010BD022000F0DCFB402C24BF402010BD202C24BF202010BD102C24BFB6
:20DA2000102010BD082C24BF082010BD002010BD904A10B50400282004FB00208268521892
:20DA40008260C268511AC160C16809B1C07938B1200000F0A3FB034920000968896A8847DC
:20DA600010BD0000AC0400202DE9F04F80461400804A5FF0FF3089462821824608FB012787
:20DA80001D005646387C012801D1304637E000F07BFB834883469BF807008007800F0228BD
:20DAA0002AD15CB1220049463800183000F0FAF80600A41B16EB090914B91DE0386AD8B976
:20DAC000C7F80890FC60DBF85C104046C96A88478DB10999404611B100F06CFB01E000F07C
:20DAE00063FBF87918B1F9683019461A04E0F86808B1564600E0361900F03CFB3000BDE8C0
:20DB0000F08F0000F0B5040028200D005949160004FB001700F038FBB86840B126B131007E
:20DB2000200000F047FB02E0200000F03DFB00F021FBF868281AF0BD2DE9F14F584D009380
:20DB40000400E86D884691468246002083462878082837D2474A282100FB0126DAF804204B
:20DB600041462000904707002CD0FF282AD028220021300000F0F8FF57EAC410707186F80D
:20DB80000480DAF814103800884707001CB90A98B84238BF074600F0A3FAC2B24146380088
:20DBA00000F096FA040004BF022000F00BFB34800098B0610A98F061A6F80290287883461D
:20DBC000401C28705846BDE8F28F0000294B00B50100002000E0401C084A1278904207DA78
:20DBE000282200FB023252798A42F4D1C0B200BD032000F0E7FAFF2000BD000050040020DD
:20DC00001C4A282100FB01204079704759480078410801200840704770B5214C0126E56D3C
:20DC200008E01449282006FB0010A968761C8847E868804720788642F3DB70BD30B5184C19
:20DC40000C4D68220021200000F08EFF012020705FF4A0720021280000F086FFFFF710FC4D
:20DC6000E16D0020496988472880BDE8304000F075BA00001003002030B5094CE56D28688A
:20DC80008047FFF7C9FF2A6C100003D021006031012090471020E0712869BDE8304000476E
:20DCA000500400202DE9F0438846040015000020814600261EE0E068626841188A4238BF87
:20DCC00011460F1AAF4228BF2F4621683A00ED1B0918404600F03CFFA068F61917EB0808B1
:20DCE000C01BA060E068C019E0606168884208BFC4F80C90A1680DB10029DCD109B9C4F81B
:20DD00000C903000BDE8F083F0B504000D00160017E0E2681018884228BF401A8219914271
:20DD200038BF0A46171AB74228BF374623683A002900181800F00CFFA068F61BED19C019FD
:20DD4000A06036B1A06861680A1AE2D1012000F039FAF0BD30B5074D040000202D78AD078D
:20DD6000AD0F022D05D108B420000123FFF77CFE01B030BD5704002000B5002308B4FFF7CF
:20DD800073FE02BD9D4B9860D9609F499A7100200968096B084700002DE9F04304006148FD
:20DDA000150088461F0081462CB199F80700800701D4002031E09149282004FB0016307CB5
:20DDC0000028F6D13079022806D13088401E284001D1680500D1002700F0D6F9B06858B115
:20DDE000F1684018404504D1F0684019F060B7710BE0200000F0D8F9C6F80880F560B77160
:20DE0000D9F85C102000096B884700F0B3F9F068281A02D1B17901B10120BDE8F083000044
:20DE200070B5404E04001500F27900209207920F022A15D12A002000FFF7AEFF16F8602FB5
:20DE4000291A2AB905002000FFF75CFE281870BD012905DB050000222000FFF753FE2818E2
:20DE600070BD0000F0B52F4F059E1500FA79040000209207920F022A16D12A002000FFF776
:20DE80008BFF17F8602F291A32B9050032002000FFF738FE2818F0BD012905DB050032007B
:20DEA0002000FFF72FFE2818F0BD00002DE9F0430C0028211500514A804600FB012619489B
:20DEC0008146404638B9D9F85820100027D029002000904723E0726910001EBF29462046F4
:20DEE0009047B06878B1F1688D422CBFF7682F464FB13A00210000F02BFE39004046FFF7FA
:20DF000097FDED1BE41955B12A00210018363000FFF7FAFED9F85C104046896A8847BDE881
:20DF2000F0830000500400203449F0B5364E0400282004FB00153CB1687900065CBFFF20E6
:20DF400000F040F9307938B1A968F9B12F88E868B84206D2EF6804E0287DB8B90120287563
:20DF6000F2E7336820003A005B6B9847E868C01BE860A868C019A860E86838B929888F4207
:20DF800003D1A97909B1A871F0BDA860F0BD00001A49F0B51C4E04002820002704FB00155D
:20DFA00014B1307900B92F75A86820B12000FFF7BBFF3079B0B1307910B9E86800B9AF7140
:20DFC000A86818B931682000896B884744B1A86840B9A87930B92000BDE8F04000F0DEB861
:20DFE00000F0C4FCF0BD0000044B282200FB02321174054A1268126A1047000010030020A8
:20E000000149086070470000AC040020F0B504000D0016001F001022002100F0A5FD284887
:20E020006560A660E76001680A0000E012681AB1A242FBD10120F0BD216004600020F0BD06
:20E0400030B50C4C0025E079E570FFF7E5FD424A012004E0282100FB0121401C0D7421786B
:20E060008842F7DBE0791021014051F00800BDE830400FE0500400201048007870470000F1
:20E080000E48007850F0010004E000000B48007810F0FE00234910B5CA7982420DD0C87176
:20E0A0000748046805E0616808001CBFA06888472468002CF7D1FFF777FC10BD570400200C
:20E0C000B8040020244A282100FB0120006A7047012900D178E4032900D183E4110089E437
:20E0E000194800B500688069804701000220084000BD0000144800B50068806980470100A0
:20E100000120084000BD0000064810B54478611C4170C9B2052924BF072000F053F82000CE
:20E1200010BD0000500400200B4A282100FB012100220A748A600A624A624B791B0648BF55
:20E140000A7500F02BB80000AC040020024B282200FB0230416170471003002010B5002464
:20E16000174810EBC400FEF7DDFC641C082CF7D310BD0000084800B54178491E4170090683
:20E1800008BFFEF7D2FD00BD00B5FEF7D4FD02484178491C417000BDA0010020084911EBD8
:20E1A000C000FEF7C3BC0000054911EBC000FEF70BBD0000024A491C12EBC000FEF71ABD2A
:20E1C000BC0400200028FDD1704700000100002000E0401C0A001278491C002AF9D17047B1
:20E1E0000100002003E0CA0748BF401C49080029F9D17047CA4A282110B500FB0120027933
:20E20000012A15D0032A17D14488FFF773FF40B95FF48070844201D3FF240EE06CB908246D
:20E220000BE0112C01D3102407E034B9042404E04488112CF7D204B90124E0B210BD0000BB
:20E24000002303608160426070470000026843689A4205D2836899540168491C0160704778
:20E260000420FFF7AFBF000030B504000D00C9B2FFF7ECFF290A2000BDE83040E6E700008F
:20E280002DE9F743E6485FF480720024804641466846FFF7D5FF09216846FFF7D7FF02210B
:20E2A0006846FFF7D3FF00216846FFF7DDFFDB48814699F801106846FFF7C8FF0121684680
:20E2C000FFF7C4FF00216846FFF7C0FFC0216846FFF7BCFF32216846FFF7B8FF31E0288852
:20E2E0000121B140084226D007216846FFF7AEFF05216846FFF7AAFF8949282006FB0017AD
:20E3000068467979FFF7A2FF39796846FFF79EFFFFF7F0FE20B93888412824BF40203880F2
:20E3200039886846FFF7A0FF3000FFF763FF01006846FFF78BFF761C99F800008642CEDB8E
:20E34000641C99F8010084423ADAD9F864201AB16946200052689047142004FB009535F85C
:20E36000080F4008FFF73CFF060009216846FFF76DFF04216846FFF769FFE1B26846FFF765
:20E3800065FF00216846FFF761FFF1B26846FFF75DFFA9786846FFF759FFE9786846FFF72F
:20E3A00055FF29796846FFF751FF00216846FFF74DFFA96808001CBF684688470126BBE728
:20E3C000009888F802004046BDE8FE832DE9F74393485FF480720024804641466846FFF7F2
:20E3E0002FFF09216846FFF731FF07216846FFF72DFF00216846FFF737FF8848814699F8D6
:20E4000001106846FFF722FF01216846FFF71EFF00216846FFF71AFFC0216846FFF716FFCB
:20E4200032216846FFF712FF00E0641C99F8010084426EDA142004FB009535F8080F400880
:20E44000FFF7CEFE060009216846FFF7FFFE04216846FFF7FBFEE1B26846FFF7F7FE00211A
:20E460006846FFF7F3FEF1B26846FFF7EFFEA9786846FFF7EBFEE9786846FFF7E7FE297999
:20E480006846FFF7E3FE00216846FFF7DFFEA96808001CBF68468847012610E0397938885B
:20E4A0000022FFF715FE81B26846FFF7DDFE3000FFF7A0FE01006846FFF7C8FE761C99F82D
:20E4C00000008642B1DA28880121B1400842F5D007216846FFF7BAFE05216846FFF7B6FE15
:20E4E0000F49282006FB001768467979FFF7AEFE39796846FFF7AAFEFFF7FCFD0028CDD16F
:20E50000D9F85C10F0B2496988473979012280B2C7E7009888F802004046BDE8FE83000020
:20E520001003002037B53D4D3D4C5FF4807268462100FFF785FE12216846FFF787FE01219E
:20E540006846FFF783FE5FF400716846FFF78CFE29796846FFF77AFE69796846FFF776FEEC
:20E56000A9796846FFF772FEC84801886846C9B2FFF76CFEFDF71CFF01006846FFF774FE1D
:20E58000FDF71AFF01006846FFF76EFE5FF480716846FFF769FE01216846FFF757FE0221D0
:20E5A0006846FFF753FE03216846FFF74FFE01212EE0000037B5194D194C5FF48072684677
:20E5C0002100FFF73DFE0A216846FFF73FFE06216846FFF73BFE5FF400716846FFF744FE2F
:20E5E00029796846FFF732FE69796846FFF72EFEA9796846FFF72AFEA44801886846C9B267
:20E60000FFF724FE01216846FFF720FE002100BF6846FFF71BFE20003EBD000050040020D2
:20E62000FC040020012806D0022806D0032806D0EE2806D007E0FDF7C3BEFDF7C5BEFDF707
:20E64000C7BE02A070470020704700BF00000000F7B51D4C90B95FF4807268462100FFF7DE
:20E66000EFFD04216846FFF7F1FD03216846FFF7EDFD14496846FFF7F7FD21E0FFF7D2FF88
:20E68000050004BF0020FEBDFFF7A0FD06005FF4807221006846FFF7D3FD7100891CC9B2D3
:20E6A0006846FFF7D3FD03216846FFF7CFFD002704E0E95D68467F1CFFF7D6FDB742F8D32B
:20E6C0002000FEBD09040000FC040020294900B50968C96B0A0018BF884700BDFFF752BBF6
:20E6E000012200210120F9E710B50400FFF7F8FF024854F08001017010BD00BF530400209C
:20E70000010030B5CA798B790025002053EA0224CA78012A08D0022A09D0032A0AD0062AA3
:20E720000CD0072A10D015E0FFF7FCFE12E0FFF7A7FD0EE08878FFF78BFF0BE0FFF7D0FC60
:20E7400048B1FFF737FF04E0FFF7CAFC18B1FFF73DFE857820B907480068406A804730BD0F
:20E7600005B90578A54228BF254601222900FFF7B5FF30BDAC040020BB4A31B5C378817853
:20E78000D56D51EA032105D1C379817951EA0321022902D0686A804731BDD1794907F9D581
:20E7A00001790078D27900248007800F92070BD4012802D9801E04D031BD00208DF8000061
:20E7C00018E00029F9D0E5E720B10128F5D0022804D00FE001208DF800000BE00800FFF748
:20E7E000F5F9FF28D6D0294A282100FB0120007C8DF800008DF80140002202216846FFF7D6
:20E800006DFF31BDF0B502009078D3780C009649E6B250EA0320CD6D04D1D379907950EA26
:20E82000032002D0686A8047F0BDC8794007F9D510791278C9799207920F890714D422B16D
:20E84000012AEFD0022A03D0F0BDFFF749FFF0BDFFF7BCF90700E5D10C48002C07BF002168
:20E86000017401210174F0E7002AEED0022AD9D1FFF7ACF90700FF2FD4D03100FFF7B4FBAD
:20E88000002EE2D13800FFF721FFDEE7100300200021B7E70121B5E701B5FFF7B7F9002256
:20E8A0008DF8000016E000006F4901B58378CA6D13B98079012800D004E0C87910F0060054
:20E8C000062802D0506A804701BD00208DF80000002200BF01216846FFF700FF01BD0000F0
:20E8E00061490079CA6DCB7913F00603062B01D0506A00474978526A8142104771B51A4C48
:20E9000080788DF80000E06D9DF800100500012918D1FFF7E5FEE079012650F00200FFF7DF
:20E92000B9FB0AE00021FFF75FFB3000FFF7CEFE3000FFF7F9FB761CF6B2217830008842EF
:20E94000F0D307E069B9FFF7CBFEE07910F0FD00FFF7A0FB2A6C100005D069460020904724
:20E9600071BD406A804771BD5004002030B53E4CE078000615D5E0784006400EE070E57806
:20E98000E16D2800C9698847E079002D05D050F00400BDE83040FFF77DBB10F0FB00FFF72D
:20E9A00079FB30BD2DE9F0422F4D040000276E780BE0142007FB005008300169080003D033
:20E9C0002000884700284DD07F1CB742F1D3E86D8146207810F0600002D0202832D02DE06E
:20E9E00060780B282AD8DFE800F0060A290E291216291A1D21252000FFF7BEFE32E0200011
:20EA0000FFF746FF2EE02000FFF744FF2AE0A078FFF76AFE26E02000FFF772FE22E0FFF750
:20EA20003BFF1FE02000FFF769FF1BE02000FFF73BFF17E02000FFF753FF13E0D9F824008D
:20EA400080470FE0002700E07F1CB742F6D2142007FB00500830C1680800F5D020008847FA
:20EA60000028F1D1BDE8F08250040020026802F8011B02607047000002681170090A5170C9
:20EA8000921C02607047000002681170090A5170090A9170090AD170121D02607047000040
:20EAA0000170090A4170090A8170090A00F8031F704700004278017851EA02218278C07876
:20EAC00051EA024151EA00607047000000B5FEF732F90C484178491C417000F01FF8FEF772
:20EAE00093FAFDF76BFFFEF76BF907490748084B022207B4074908486422FDF79BFFFEF758
:20EB0000FDF807BDA00100206809000080060020E56400080C930008E80F0020004B1847AB
:20EB200065110020FEE7000000F028B810B502E0401C491C521E4AB103780C78A342F7D00C
:20EB400002D25FF0FF3010BD012010BD002010BD10B50300002A04E011F8014B521E03F825
:20EB6000014BF9D110BD0000C9B20300002A02E003F8011B521EFBD170470000014CA646E5
:20EB800020470000258F00088C46B0FBF1F10CFB110070478C4690FBF1F10CFB1100704716
:20EBA0006A480168090604D50A49114A0A60114A0A60002140F80C1B0068400708D4114811
:20EBC000054940F8041B062140F8041B03490160704700BF0420024055550000FF0F0000D1
:20EBE0000248034901600349016070470820024023016745AB89EFCD0248014901607047E4
:20EC0000AAAA000000300040F0B50C000500A80522D14E4E4E4FFFF7C3FF03E00F4815F5A5
:20EC200080652418012C17DB022030600C480560306850F040003060FFF7DEFF3868C10746
:20EC4000FAD4316802229143316010F0140FE5D0142038600720F0BD0020F0BD00FCFFFF85
:20EC6000142002402DE9F0470600394F0C0015006D1C00F06FF800F071F88046002081463C
:20EC8000FFF78EFF31486D0882460120CAF8000034F8020B26F8020B01E0FFF7ADFF3868D1
:20ECA000C007FAD4DAF8000001218843CAF80000386810F0140F05D0386850F0140038601A
:20ECC000042081466D1EE0D1404600F04BF800F04DF84846BDE8F08710B500F03BF818482D
:20ECE0001849006880B2884223D1184CFFF758FFFFF776FF206850F400702060206850F0BB
:20ED000020002060206850F040002060FFF774FF0F480068C007F9D420687FF40071014062
:20ED200021602068102188432060206850F0800020600548007808B900F01CF810BD00BF70
:20ED400000F8FF1FA55A0000A1010020102002400C200240004B184737710008004B1847F8
:20ED600005740008004B1847ED730008004B1847316A0008004B18472B710008DF0F000077
:20ED80004C0000204C0000204C00000000000020A0910008DC0100002C100020A08F000886
:20EDA000FF00000000E00000FFE0FFFFFFFF0000B80B0000313233343536000000000000A1
:20EDC000909200089892000800400000000000000000000000000000000000000010000087
:20EDE00000000000802500006613010181C0030000000000A5000000000000008D0000007D
:20EE00000000000081A9B199A38B93BBFFFFFFFFFFFFFF9EE7FFFFFFFFFFFFFFB6EDFFFFEA
:20EE2000FFFFFFFFFF0000A50000000000000000FFFFFFFFFFFFFFFFFFFFFFFFFFFFFFFF42
:20EE4000FFFFFFFFFFFFFFFFFFFFFFFF00000000F00000003358EA884A616E4665624D61FD
:20EE6000724170724D61794A756E4A756C4175675365704F63744E6F7644656320AA4400C6
:20EE800001000000FFFF0000000000000000000053454747455200004A2D4C696E6B0000B1
:20EEA000CD690008D16900080D68000881690008B96900081D6800081D6900084569000868
:20EEC00031680008D96800086D7C0008D17C0008E17C0008497D0008CD7C00084D7D0008AC
:20EEE000A17D00083D7C0008F57B0008317C00084D7C0008557C0008997D0008597D000858
:20EF00009D7D0008A57D0008000000004D61696E5461736B00000000FFFF00002E0000EA77
:20EF200014F09FE514F09FE514F09FE514F09FE5FFFFFFFF10F09FE510F09FE504800040E9
:20EF4000088000400C80004010800040783800201C800040FFFFFFFFFFFFFFFF00000000A9
:20EF60000000000000000000000000004A2D4C696E6B2041524D2D53545237313120636FDB
:20EF80006D70696C65642046656220313920323030372031363A32353A343400000000008C
:20EFA000000000000000000000000000000000000000000000000000000000000000000051
:20EFC0000000000000000000000000000000000000000000000000000000000000000FE141
:20EFE0001F00C0E3120080E300F021E170D09FE51F00C0E31F0080E300F021E164D09FE536
:20F0000064009FE50FE0A0E110FF2FE15C309FE50040A0E3004083E5204083E50040E0E333
:20F02000404083E50C40A0E31C4083E50040A0E3084083E50040A0E3184083E52020A0E39C
:20F040000000A0E36050A0E3050083E7041081E2045085E2012052E2FAFFFF1A10009FE55E
:20F0600010FF2FE1003C0020C03B0020A9A3004000F8FFFF9C8100400120704770B50C4CC6
:20F080000C4E82B02500241D03E003F075F90C350C34B54208D2616820682A688142F4D17D
:20F0A000002103F075F9F2E702B070BC01BC0047C8B90040F8B9004001C08FE21CFF2FE104
:20F0C000044C054D054E064FAE462047002809D0BE4630475D810040B1810040618100405D
:20F0E000C9810040044C054D0020AE462047044C044DAE4620470000B9B30040D38100402D
:20F1000029B400408DB400400023C36042610160891841608918816070470000F0B50400E3
:20F120000F00E5687E686069C0007119884201D201F0A0FB3F6833003A00E168206803F079
:20F1400039F83300F01DC0083A18E168A06803F031F8E0688019E0602800F0BD704700000A
:20F1600000B5C168C91DCB080021C16042688168006801F09FF800BD00B5C168C91DCB08DF
:20F180000021C16042688168006801F093F8002801D101F04FF800BDF0B504000D00074EBC
:20F1A000B54201D3771E00E02F003900200002F087FCE419ED1BF3D1F0BDC046010800008D
:20F1C000F0B50400164D2E6864369F492000FFF7A5FF9E49098847182000FFF7CDFF002870
:20F1E0001CD1F80861680A1810787B075B0F06D0D840010050780822D21A904008431921A1
:20F200000140092901D10020F0BDC00601D50320F0BD2868301A0128D7DA0220F0BDC046E7
:20F220006828002010B59EB0040001F003F8002820D12069C108626851180A784007400F65
:20F2400006D0C24013004A780821081A82401A4319201040092801D100200BE0D00601D554
:20F26000032007E0202206A96846FFF74DFF6846FFF7A6FF1EB010BD01604260D21DD010ED
:20F28000400008187047000000B513005A07520FDB080068C01802F06FFF00BDF0B50C00DC
:20F2A0001D0006682168241DD008361857077F0F3A00300002F060FF034800683A186D1E9C
:20F2C000F0D12000F0BDC046D8040020F5B583B00C00002001900090009801210140182041
:20F2E0004143584845180E2C01D2260000E00E2604980068B0425FD00098C00701D50020CC
:20F3000000E030000499086083492800FFF706FF07000120B040401E400002903F494018C1
:20F3200002F010FF3E4909887A1801002800FFF7ABFF7A492800FFF7F1FE3A493A4A1288E8
:20F3400080180860022E06D3771E74492800FFF7E5FE7F1EF9D172492800FFF7DFFE07002D
:20F3600002983249401802F0EDFE0100304800883A182800FFF788FF33492800FFF7CEFEE5
:20F3800032490988401828612800FFF7E7FE0E2E15D1E868C01DC7083A00296825480068BF
:20F3A00002F060FF3A00A9682348006802F05AFF22482969016002E021480068E860330008
:20F3C0001848026803992800FFF768FF03900198002807D0FFF726FF002803D01C490E345A
:20F3E0000C6018E01648E96801602800FFF7B8FE002801D01649F3E7A41B0098401C009050
:20F400000195002C00D067E72800FFF70BFF002801D00F490E6005B0F0BDC046000090E845
:20F420008800002038050020860000200000A0E88A0000201C050020240500202C05002014
:20F440003C05002004050020AC0400208C0000203405002030B5012851D02B4C002801D1AD
:20F46000242102E0022803D13221200002F0F0F8E08B2349884201D301F0FCF9214DE18BE5
:20F48000280002F0E5F8228829002048FFF7F4FE010062881E48FFF7EFFEA28801001D488E
:20F4A000FFF7EAFEE28801001B48FFF7E5FE228901001A48FFF7E0FE628901001848FFF7A3
:20F4C000DBFEA28901001748FFF7D6FEE28901001548FFF7D1FEA28C0100A048FFF7CCFE99
:20F4E000E28C01003648FFF7C7FE228D01003548FFF7C2FE628D01003348FFF7BDFE30BD78
:20F5000001040000A400002070000020A4040020BC040020C4040020CC040020D40400201A
:20F52000DC040020AC040020B4040020F0B581B0040017001E4D002B2FD12149FFF7EEFD51
:20F5400006000120B84040001A49401802F0FAFD01001948008832182000FFF795FE194E64
:20F5600031002000FFF7DAFD1449098840180090022F06D37F1E31002000FFF7CFFD7F1E40
:20F58000F9D111492000FFF7C9FD2000FFF7E6FDE06828600098206101E02868E0602000B8
:20F5A000FFF7DEFD002801D100F044FE01B0F0BD40050020FEFF7FE8A00000209C000020AB
:20F5C000EC040020F4040020FC040020F1B5130002692C480078002834D0002B50D0FF2439
:20F5E000294DD008009E766836185007400FB707FF0EC0190327BE433768002808D0C740D8
:20F60000BC4676682027381A864067463E4337001E48006812183E0A2740E85D0706FF202E
:20F620003040285C00043843360A27003740EF5D3F020743300A285C38430860091D5B1E62
:20F640001ED0CEE7002B1BD0D008009C646820185407640F8507ED0E64190325A843056827
:20F66000002C06D0E5402E0045682020001B854035430648006812180D60091D5B1EE3D150
:20F6800001B0F0BD9000002094BA0040F804002030B582B00400714D30492800FFF73EFD07
:20F6A000134802F04FFD01002D4802882800FFF7EBFD2800FFF784FD002816D100230222B6
:20F6C00069462800FFF732FF00280ED1022269462800FFF77BFF0098C006C00E1F2801D076
:20F6E000042002E001982070002002B030BDC0460120D0E430B582B00400584D17492800F9
:20F70000FFF70CFD144802F01DFD0100144802882800FFF7B9FD2800FFF752FD002819D148
:20F720000023022269462800FFF700FF002811D1022269462800FFF749FF0098C006C00E47
:20F740001F2801D0042005E0019820700198000A6070002002B030BDB220D0E0E4040020A3
:20F760009E000020F1B591B00C0000250D2C01D2260000E00D26394F002D04D00D2E02D1D7
:20F780000120009029E00020009035493800FFF7C5FC0120B04080002E49401802F0D2FC72
:20F7A0002D490A8801003800FFF76EFD2D493800FFF7B4FC2C490988401838613800FFF72E
:20F7C000CDFCF86801903800FFF7CAFC00283ED13800FFF727FD002839D1009B721C03A9EB
:20F7E00038001830FFF7A2FE002830D11A2C12D30198F8603800FFF7B3FC002827D1ABB452
:20F800000000000000000000000000000000000000000000000000000000000000000000E8
:20F820000000000000000000000000000000000000000000000000000000000000000000C8
:20F840000000000000000000000000000000000000000000000000000000000000000000A8
:20F86000000000000000000000000000000000000000000000000000000000000000000088
:20F88000000000000000000000000000000000000000000000000000000000000000000068
:20F8A000000000000000000000000000000000000000000000000000000000000000000048
:20F8C000000000000000000000000000000000000000000000000000000000000000000028
:20F8E000000000000000000000000000000000000000000000000000000000000000000008
:20F900000000000000000000000000000000000000000000000000000000000000000000E7
:20F920000000000000000000000000000000000000000000000000000000000000000000C7
:20F940000000000000000000000000000000000000000000000000000000000000000000A7
:20F96000000000000000000000000000000000000000000000000000000000000000000087
:20F98000000000000000000000000000000000000000000000000000000000000000000067
:20F9A000000000000000000000000000000000000000000000000000000000000000000047
:20F9C000000000000000000000000000000000000000000000000000000000000000000027
:20F9E000000000000000000000000000000000000000000000000000000000000000000007
:20FA00000000000000000000000000000000000000000000000000000000000000000000E6
:20FA20000000000000000000000000000000000000000000000000000000000000000000C6
:20FA40000000000000000000000000000000000000000000000000000000000000000000A6
:20FA6000000000000000000000000000000000000000000000000000000000000000000086
:20FA8000000000000000000000000000000000000000000000000000000000000000000066
:20FAA000000000000000000000000000000000000000000000000000000000000000000046
:20FAC000000000000000000000000000000000000000000000000000000000000000000026
:20FAE000000000000000000000000000000000000000000000000000000000000000000006
:20FB00000000000000000000000000000000000000000000000000000000000000000000E5
:20FB20000000000000000000000000000000000000000000000000000000000000000000C5
:20FB40000000000000000000000000000000000000000000000000000000000000000000A5
:20FB6000000000000000000000000000000000000000000000000000000000000000000085
:20FB8000000000000000000000000000000000000000000000000000000000000000000065
:20FBA000000000000000000000000000000000000000000000000000000000000000000045
:20FBC000000000000000000000000000000000000000000000000000000000000000000025
:20FBE000000000000000000000000000000000000000000000000000000000000000000005
:20FC000030903201FFFFFFFFFFFFFFFFFFFFFFFFFFFFFFFFFFFFFFFFFFFFFFFFFFFFFFFF0D
:20FC20005244492C466C617368444C2C466C61736842502C4A466C6173682C474442467577
:10FC40006C6C00FF802020207BE2B7DDC407C20A75
:00000001FF
